{
  "address": "0x7aB0194ba433aB0f2c52f2965300BBBC179Ba984",
  "abi": [
    {
      "inputs": [
        {
          "internalType": "address",
          "name": "verifier_",
          "type": "address"
        }
      ],
      "stateMutability": "nonpayable",
      "type": "constructor"
    },
    {
      "anonymous": false,
      "inputs": [
        {
          "indexed": true,
          "internalType": "address",
          "name": "sender",
          "type": "address"
        },
        {
          "indexed": true,
          "internalType": "uint256",
          "name": "cardCount",
          "type": "uint256"
        }
      ],
      "name": "BatchRevealProofProvided",
      "type": "event"
    },
    {
      "anonymous": false,
      "inputs": [
        {
          "indexed": true,
          "internalType": "address",
          "name": "creator",
          "type": "address"
        }
      ],
      "name": "BoardCreated",
      "type": "event"
    },
    {
      "anonymous": false,
      "inputs": [
        {
          "indexed": true,
          "internalType": "address",
          "name": "refresher",
          "type": "address"
        }
      ],
      "name": "BoardRefreshed",
      "type": "event"
    },
    {
      "anonymous": false,
      "inputs": [
        {
          "indexed": true,
          "internalType": "address",
          "name": "caller",
          "type": "address"
        }
      ],
      "name": "Called",
      "type": "event"
    },
    {
      "anonymous": false,
      "inputs": [
        {
          "indexed": true,
          "internalType": "address",
          "name": "checker",
          "type": "address"
        }
      ],
      "name": "Checked",
      "type": "event"
    },
    {
      "anonymous": false,
      "inputs": [
        {
          "indexed": true,
          "internalType": "address",
          "name": "player",
          "type": "address"
        }
      ],
      "name": "DeckShuffled",
      "type": "event"
    },
    {
      "anonymous": false,
      "inputs": [
        {
          "indexed": true,
          "internalType": "address",
          "name": "folder",
          "type": "address"
        }
      ],
      "name": "Folded",
      "type": "event"
    },
    {
      "anonymous": false,
      "inputs": [
        {
          "indexed": true,
          "internalType": "enum GameStage",
          "name": "stage",
          "type": "uint8"
        }
      ],
      "name": "GameStageChanged",
      "type": "event"
    },
    {
      "anonymous": false,
      "inputs": [
        {
          "indexed": true,
          "internalType": "address",
          "name": "player",
          "type": "address"
        }
      ],
      "name": "JoinedBoard",
      "type": "event"
    },
    {
      "anonymous": false,
      "inputs": [
        {
          "indexed": true,
          "internalType": "uint256",
          "name": "playerIndex",
          "type": "uint256"
        }
      ],
      "name": "NextPlayer",
      "type": "event"
    },
    {
      "anonymous": false,
      "inputs": [
        {
          "indexed": true,
          "internalType": "address",
          "name": "previousOwner",
          "type": "address"
        },
        {
          "indexed": true,
          "internalType": "address",
          "name": "newOwner",
          "type": "address"
        }
      ],
      "name": "OwnershipTransferred",
      "type": "event"
    },
    {
      "anonymous": false,
      "inputs": [
        {
          "indexed": true,
          "internalType": "address",
          "name": "raiser",
          "type": "address"
        }
      ],
      "name": "Raised",
      "type": "event"
    },
    {
      "anonymous": false,
      "inputs": [
        {
          "indexed": true,
          "internalType": "address",
          "name": "sender",
          "type": "address"
        },
        {
          "indexed": true,
          "internalType": "uint256",
          "name": "cardIndex",
          "type": "uint256"
        }
      ],
      "name": "RevealProofProvided",
      "type": "event"
    },
    {
      "anonymous": false,
      "inputs": [
        {
          "indexed": true,
          "internalType": "address",
          "name": "requester",
          "type": "address"
        }
      ],
      "name": "StackRequested",
      "type": "event"
    },
    {
      "inputs": [],
      "name": "CARD_NUM",
      "outputs": [
        {
          "internalType": "uint256",
          "name": "",
          "type": "uint256"
        }
      ],
      "stateMutability": "view",
      "type": "function"
    },
    {
      "inputs": [],
      "name": "MIN_BIG_BLIND_SIZE",
      "outputs": [
        {
          "internalType": "uint256",
          "name": "",
          "type": "uint256"
        }
      ],
      "stateMutability": "view",
      "type": "function"
    },
    {
      "inputs": [],
      "name": "MIN_PLAYERS",
      "outputs": [
        {
          "internalType": "uint256",
          "name": "",
          "type": "uint256"
        }
      ],
      "stateMutability": "view",
      "type": "function"
    },
    {
      "inputs": [],
      "name": "amountToCall",
      "outputs": [
        {
          "internalType": "uint256",
          "name": "",
          "type": "uint256"
        }
      ],
      "stateMutability": "view",
      "type": "function"
    },
    {
      "inputs": [],
      "name": "announceWinner",
      "outputs": [
        {
          "internalType": "address",
          "name": "winner",
          "type": "address"
        },
        {
          "internalType": "uint256",
          "name": "highestScore",
          "type": "uint256"
        }
      ],
      "stateMutability": "nonpayable",
      "type": "function"
    },
    {
      "inputs": [
        {
          "internalType": "uint256",
          "name": "amount",
          "type": "uint256"
        }
      ],
      "name": "call",
      "outputs": [],
      "stateMutability": "nonpayable",
      "type": "function"
    },
    {
      "inputs": [
        {
          "internalType": "address",
          "name": "player",
          "type": "address"
        },
        {
          "internalType": "uint256",
          "name": "amount",
          "type": "uint256"
        }
      ],
      "name": "canCall",
      "outputs": [
        {
          "internalType": "bool",
          "name": "",
          "type": "bool"
        }
      ],
      "stateMutability": "view",
      "type": "function"
    },
    {
      "inputs": [
        {
          "internalType": "address",
          "name": "player",
          "type": "address"
        }
      ],
      "name": "canCheck",
      "outputs": [
        {
          "internalType": "bool",
          "name": "",
          "type": "bool"
        }
      ],
      "stateMutability": "view",
      "type": "function"
    },
    {
      "inputs": [
        {
          "internalType": "address",
          "name": "player",
          "type": "address"
        }
      ],
      "name": "canFold",
      "outputs": [
        {
          "internalType": "bool",
          "name": "",
          "type": "bool"
        }
      ],
      "stateMutability": "view",
      "type": "function"
    },
    {
      "inputs": [
        {
          "internalType": "address",
          "name": "player",
          "type": "address"
        },
        {
          "internalType": "uint256",
          "name": "amount",
          "type": "uint256"
        }
      ],
      "name": "canRaise",
      "outputs": [
        {
          "internalType": "bool",
          "name": "",
          "type": "bool"
        }
      ],
      "stateMutability": "view",
      "type": "function"
    },
    {
      "inputs": [],
      "name": "check",
      "outputs": [],
      "stateMutability": "nonpayable",
      "type": "function"
    },
    {
      "inputs": [
        {
          "internalType": "uint256",
          "name": "requiredPlayers",
          "type": "uint256"
        },
        {
          "internalType": "uint256",
          "name": "bigBlindSize",
          "type": "uint256"
        }
      ],
      "name": "createBoard",
      "outputs": [],
      "stateMutability": "nonpayable",
      "type": "function"
    },
    {
      "inputs": [],
      "name": "fold",
      "outputs": [],
      "stateMutability": "nonpayable",
      "type": "function"
    },
    {
      "inputs": [],
      "name": "getBoard",
      "outputs": [
        {
          "components": [
            {
              "internalType": "enum GameStage",
              "name": "stage",
              "type": "uint8"
            },
            {
              "internalType": "address[]",
              "name": "playerAddresses",
              "type": "address[]"
            },
            {
              "internalType": "uint256[][]",
              "name": "playerHands",
              "type": "uint256[][]"
            },
            {
              "internalType": "uint256[]",
              "name": "playerBets",
              "type": "uint256[]"
            },
            {
              "internalType": "uint256[]",
              "name": "playerStacks",
              "type": "uint256[]"
            },
            {
              "internalType": "bool[]",
              "name": "playersDoneForCurrentStage",
              "type": "bool[]"
            },
            {
              "internalType": "bool[]",
              "name": "playerInPots",
              "type": "bool[]"
            },
            {
              "internalType": "uint256[]",
              "name": "communityCards",
              "type": "uint256[]"
            },
            {
              "internalType": "uint256",
              "name": "nextPlayerToPlay",
              "type": "uint256"
            },
            {
              "internalType": "uint256",
              "name": "dealerIndex",
              "type": "uint256"
            },
            {
              "internalType": "uint256",
              "name": "bigBlindSize",
              "type": "uint256"
            },
            {
              "internalType": "uint256[]",
              "name": "deck",
              "type": "uint256[]"
            },
            {
              "internalType": "address",
              "name": "winner",
              "type": "address"
            },
            {
              "internalType": "uint256",
              "name": "requiredPlayers",
              "type": "uint256"
            },
            {
              "internalType": "uint256",
              "name": "potSize",
              "type": "uint256"
            }
          ],
          "internalType": "struct Board",
          "name": "",
          "type": "tuple"
        }
      ],
      "stateMutability": "view",
      "type": "function"
    },
    {
      "inputs": [
        {
          "internalType": "uint256",
          "name": "val",
          "type": "uint256"
        }
      ],
      "name": "getCardInfo",
      "outputs": [
        {
          "components": [
            {
              "internalType": "enum Rank",
              "name": "rank",
              "type": "uint8"
            },
            {
              "internalType": "uint256",
              "name": "value",
              "type": "uint256"
            }
          ],
          "internalType": "struct CardInfo",
          "name": "",
          "type": "tuple"
        }
      ],
      "stateMutability": "pure",
      "type": "function"
    },
    {
      "inputs": [
        {
          "internalType": "uint256[]",
          "name": "cardIndexes",
          "type": "uint256[]"
        }
      ],
      "name": "getRevealProofs",
      "outputs": [
        {
          "components": [
            {
              "internalType": "uint256[8]",
              "name": "proof",
              "type": "uint256[8]"
            },
            {
              "internalType": "uint256[4]",
              "name": "card",
              "type": "uint256[4]"
            }
          ],
          "internalType": "struct RevealProof[]",
          "name": "proofs",
          "type": "tuple[]"
        }
      ],
      "stateMutability": "view",
      "type": "function"
    },
    {
      "inputs": [],
      "name": "getShuffleProof",
      "outputs": [
        {
          "components": [
            {
              "internalType": "uint256[8]",
              "name": "proof",
              "type": "uint256[8]"
            },
            {
              "internalType": "uint256[104]",
              "name": "deck",
              "type": "uint256[104]"
            }
          ],
          "internalType": "struct ShuffleProof",
          "name": "",
          "type": "tuple"
        }
      ],
      "stateMutability": "view",
      "type": "function"
    },
    {
      "inputs": [],
      "name": "globalPaused",
      "outputs": [
        {
          "internalType": "bool",
          "name": "",
          "type": "bool"
        }
      ],
      "stateMutability": "view",
      "type": "function"
    },
    {
      "inputs": [],
      "name": "isBetRound",
      "outputs": [
        {
          "internalType": "bool",
          "name": "",
          "type": "bool"
        }
      ],
      "stateMutability": "view",
      "type": "function"
    },
    {
      "inputs": [],
      "name": "isRevealRound",
      "outputs": [
        {
          "internalType": "bool",
          "name": "",
          "type": "bool"
        }
      ],
      "stateMutability": "view",
      "type": "function"
    },
    {
      "inputs": [],
      "name": "joinBoard",
      "outputs": [
        {
          "internalType": "uint256",
          "name": "",
          "type": "uint256"
        }
      ],
      "stateMutability": "nonpayable",
      "type": "function"
    },
    {
      "inputs": [],
      "name": "owner",
      "outputs": [
        {
          "internalType": "address",
          "name": "",
          "type": "address"
        }
      ],
      "stateMutability": "view",
      "type": "function"
    },
    {
      "inputs": [
        {
          "components": [
            {
              "internalType": "uint256[8]",
              "name": "proof",
              "type": "uint256[8]"
            },
            {
              "internalType": "uint256[4]",
              "name": "card",
              "type": "uint256[4]"
            }
          ],
          "internalType": "struct RevealProof[]",
          "name": "proofs",
          "type": "tuple[]"
        }
      ],
      "name": "provideRevealProof",
      "outputs": [],
      "stateMutability": "nonpayable",
      "type": "function"
    },
    {
      "inputs": [
        {
          "internalType": "uint256",
          "name": "amount",
          "type": "uint256"
        }
      ],
      "name": "raise",
      "outputs": [],
      "stateMutability": "nonpayable",
      "type": "function"
    },
    {
      "inputs": [],
      "name": "refreshBoard",
      "outputs": [],
      "stateMutability": "nonpayable",
      "type": "function"
    },
    {
      "inputs": [],
      "name": "renounceOwnership",
      "outputs": [],
      "stateMutability": "nonpayable",
      "type": "function"
    },
    {
      "inputs": [],
      "name": "requestStack",
      "outputs": [],
      "stateMutability": "nonpayable",
      "type": "function"
    },
    {
      "inputs": [
        {
          "components": [
            {
              "internalType": "uint256[8]",
              "name": "proof",
              "type": "uint256[8]"
            },
            {
              "internalType": "uint256[104]",
              "name": "deck",
              "type": "uint256[104]"
            }
          ],
          "internalType": "struct ShuffleProof",
          "name": "proof",
          "type": "tuple"
        }
      ],
      "name": "shuffleDeck",
      "outputs": [],
      "stateMutability": "nonpayable",
      "type": "function"
    },
    {
      "inputs": [],
      "name": "smallBlindSize",
      "outputs": [
        {
          "internalType": "uint256",
          "name": "",
          "type": "uint256"
        }
      ],
      "stateMutability": "view",
      "type": "function"
    },
    {
      "inputs": [
        {
          "internalType": "address",
          "name": "newOwner",
          "type": "address"
        }
      ],
      "name": "transferOwnership",
      "outputs": [],
      "stateMutability": "nonpayable",
      "type": "function"
    },
    {
      "inputs": [],
      "name": "verifier",
      "outputs": [
        {
          "internalType": "address",
          "name": "",
          "type": "address"
        }
      ],
      "stateMutability": "view",
      "type": "function"
    }
  ],
  "transactionHash": "0x49ee1bb23ba42d53b7bed7a264ba8e2045aca11b3246ccf8e0b92a59f2cd4b37",
  "args": [
    "0xD2955F7d72bF57a764094d0736150881213d4263"
  ],
  "numDeployments": 8,
  "solcInputHash": "3e2a6cc6c05a72d83756065caf1c0dc9",
  "bytecode": "0x60e06040526034608052600a60a052600360c0523480156200002057600080fd5b50604051620036db380380620036db833981016040819052620000439162000125565b6200004e33620000d5565b6001600160a01b038116620000a95760405162461bcd60e51b815260206004820152601560248201527f7a65726f20616464726573732076657269666965720000000000000000000000604482015260640160405180910390fd5b601280546001600160a01b0390921661010002610100600160a81b031990921691909117905562000157565b600080546001600160a01b038381166001600160a01b0319831681178455604051919092169283917f8be0079c531659141344cd1fd0a4f28419497f9722a3daafe3b4186f6b6457e09190a35050565b6000602082840312156200013857600080fd5b81516001600160a01b03811681146200015057600080fd5b9392505050565b60805160a05160c051613538620001a3600039600081816103580152610751015260008181610420015261077c01526000818161022901528181612306015261236e01526135386000f3fe608060405234801561001057600080fd5b50600436106101e45760003560e01c8063837a70171161010f578063b66bd808116100a2578063e684f46a11610071578063e684f46a14610400578063f2fde38b14610408578063f457ba8c1461041b578063f84561a21461044257600080fd5b8063b66bd808146103e8578063b7bda31d146103f0578063c68215c3146103f8578063e153e4ed1461031257600080fd5b8063919840ad116100de578063919840ad146103ab578063970129be146103b3578063a30be54e146103d3578063a3ca18751461034057600080fd5b8063837a70171461034057806385f07bbe14610353578063876d6f881461037a5780638da5cb5b1461039a57600080fd5b80633264a34b11610187578063715018a611610156578063715018a61461030a5780637cabca66146103125780638013575714610325578063808d33be1461032d57600080fd5b80633264a34b146102c857806340208aa0146102dd578063417d426d146102e557806361a552dc146102fd57600080fd5b80631c74bd4d116101c35780631c74bd4d146102245780632b0969261461025e5780632b7ac3f3146102715780632d8cd096146102a157600080fd5b80624f4803146101e957806303dd4a7c146101fe57806317d5aad514610211575b600080fd5b6101fc6101f7366004612cc1565b610449565b005b6101fc61020c366004612cda565b610457565b6101fc61021f366004612ced565b6106e1565b61024b7f000000000000000000000000000000000000000000000000000000000000000081565b6040519081526020015b60405180910390f35b6101fc61026c366004612cc1565b610853565b6012546102899061010090046001600160a01b031681565b6040516001600160a01b039091168152602001610255565b6102a961085e565b604080516001600160a01b039093168352602083019190915201610255565b6102d06109b6565b6040516102559190612e37565b61024b610e0a565b6102ed6111d3565b6040519015158152602001610255565b6012546102ed9060ff1681565b6101fc611279565b6102ed610320366004612fbb565b61128d565b6101fc6112e6565b6101fc61033b366004612fd6565b611435565b6102ed61034e36600461304c565b6116bc565b61024b7f000000000000000000000000000000000000000000000000000000000000000081565b61038d6103883660046130e6565b611716565b60405161025591906131af565b6000546001600160a01b0316610289565b6101fc61187d565b6103c66103c1366004612cc1565b611887565b604051610255919061322c565b6103db6118e9565b6040516102559190613257565b6101fc611969565b6102ed611a5c565b61024b611ac7565b6101fc611ad9565b6101fc610416366004612fbb565b611ae3565b61024b7f000000000000000000000000000000000000000000000000000000000000000081565b600061024b565b610454600282611b70565b50565b60015460029060ff16600c81111561047157610471612d0f565b81600c81111561048357610483612d0f565b146104ca5760405162461bcd60e51b8152602060048201526012602482015271696e76616c69642067616d6520737461676560701b60448201526064015b60405180910390fd5b336000908152601060205260409020546009541461051a5760405162461bcd60e51b815260206004820152600d60248201526c3737ba103cb7bab9103a3ab93760991b60448201526064016104c1565b336000818152601060205260409020546002805491929183908110610541576105416132a0565b6000918252602090912001546001600160a01b0316146105975760405162461bcd60e51b81526020600482015260116024820152701c1b185e595c881b9bdd081a9bda5b9959607a1b60448201526064016104c1565b60125461010090046001600160a01b03166105e55760405162461bcd60e51b815260206004820152600e60248201526d32b6b83a3c903b32b934b334b2b960911b60448201526064016104c1565b601254604051631862bf2760e01b81526101009091046001600160a01b031690631862bf27906106199086906004016132b6565b6020604051808303816000875af1158015610638573d6000803e3d6000fd5b505050506040513d601f19601f8201168201806040525081019061065c91906132d3565b6106a85760405162461bcd60e51b815260206004820152601360248201527f766572696669636174696f6e206661696c65640000000000000000000000000060448201526064016104c1565b60405133907f52aeaf4a41befcb180ceec6080b875ce017799a4d4a174a928da8d6bb23d93bf90600090a26106db611fe2565b50505050565b60015460009060ff16600c8111156106fb576106fb612d0f565b81600c81111561070d5761070d612d0f565b1461074f5760405162461bcd60e51b8152602060048201526012602482015271696e76616c69642067616d6520737461676560701b60448201526064016104c1565b7f0000000000000000000000000000000000000000000000000000000000000000831015801561079f57507f00000000000000000000000000000000000000000000000000000000000000008210155b6108115760405162461bcd60e51b815260206004820152602d60248201527f726571756972656420706c6179657273203e3d20332026262062696720626c6960448201527f6e642073697a65203e3d2031300000000000000000000000000000000000000060648201526084016104c1565b6108196112e6565b600e839055600b82905560405133907fb99cbce284f6a5caf92b1bd3a44f56ce5bc393156076079d0bfa3f1353b1750090600090a2505050565b610454600082611b70565b6001546000908190600b9060ff16600c81111561087d5761087d612d0f565b81600c81111561088f5761088f612d0f565b146108d15760405162461bcd60e51b8152602060048201526012602482015271696e76616c69642067616d6520737461676560701b60448201526064016104c1565b60005b60025481101561099557600080600160020183815481106108f7576108f76132a0565b90600052602060002001905060005b815481101561094957818181548110610921576109216132a0565b906000526020600020015483610937919061330b565b92506109428161331e565b9050610906565b50818510156109825781945060018001838154811061096a5761096a6132a0565b6000918252602090912001546001600160a01b031695505b50508061098e9061331e565b90506108d4565b5050600d80546001600160a01b0319166001600160a01b0384161790559091565b610a39604080516101e081019091528060008152602001606081526020016060815260200160608152602001606081526020016060815260200160608152602001606081526020016000815260200160008152602001600081526020016060815260200160006001600160a01b0316815260200160008152602001600081525090565b604080516101e0810190915260018054829060ff16600c811115610a5f57610a5f612d0f565b600c811115610a7057610a70612d0f565b815260200160018201805480602002602001604051908101604052809291908181526020018280548015610acd57602002820191906000526020600020905b81546001600160a01b03168152600190910190602001808311610aaf575b5050505050815260200160028201805480602002602001604051908101604052809291908181526020016000905b82821015610b6757600084815260209081902083018054604080518285028101850190915281815292830182828015610b5357602002820191906000526020600020905b815481526020019060010190808311610b3f575b505050505081526020019060010190610afb565b50505050815260200160038201805480602002602001604051908101604052809291908181526020018280548015610bbe57602002820191906000526020600020905b815481526020019060010190808311610baa575b5050505050815260200160048201805480602002602001604051908101604052809291908181526020018280548015610c1657602002820191906000526020600020905b815481526020019060010190808311610c02575b5050505050815260200160058201805480602002602001604051908101604052809291908181526020018280548015610c8e57602002820191906000526020600020906000905b825461010083900a900460ff161515815260206001928301818104948501949093039092029101808411610c5d5790505b5050505050815260200160068201805480602002602001604051908101604052809291908181526020018280548015610d0657602002820191906000526020600020906000905b825461010083900a900460ff161515815260206001928301818104948501949093039092029101808411610cd55790505b5050505050815260200160078201805480602002602001604051908101604052809291908181526020018280548015610d5e57602002820191906000526020600020905b815481526020019060010190808311610d4a575b505050505081526020016008820154815260200160098201548152602001600a8201548152602001600b8201805480602002602001604051908101604052809291908181526020018280548015610dd457602002820191906000526020600020905b815481526020019060010190808311610dc0575b5050509183525050600c8201546001600160a01b03166020820152600d8201546040820152600e90910154606090910152919050565b600180546000919060ff16600c811115610e2657610e26612d0f565b81600c811115610e3857610e38612d0f565b14610e7a5760405162461bcd60e51b8152602060048201526012602482015271696e76616c69642067616d6520737461676560701b60448201526064016104c1565b3360009081526011602052604090205460ff1615610eda5760405162461bcd60e51b815260206004820152600e60248201527f616c7265616479206a6f696e656400000000000000000000000000000000000060448201526064016104c1565b60408051600080825260208201928390526002805460018082019092557f405787fa12a823e0f2b7631cc41b3ba8828b3321ca811111fa75cd3aa3bb5ace0180546001600160a01b0319163317905560038054918201815590915281519192610f67927fc2575a0e9e593c00f959f8c92f12db2869c3395a3b0502d05e2516446f71f85b90920191612a3b565b5060048054600181810190925560007f8a35acfbc15ff81a39ae7d344fd709f28e8600b4aa8c65c6b64bfe7fe36bd19b909101819055600580548084019091556103e87f036b6384b5eca791c62761152d0c79bb0604c104a5fb6f4eb0703f3154bb3db0909101556006805480840190915560208082047ff652222313e28459528d920b65115c16c04f3efc82aaedc97be59f3f377c0d3f01805460ff601f94851661010090810a82810219909316909217909255600780548088019091558381047fa66cc928b5edb82af9bd49922954155ab7b0942694bea4ce44661d9a8736c6880180549190951690910a9182021916179091553382526011905260409020805460ff19168217905560025461107f9190613337565b33600090815260106020526040902055600e5460025403611191576001805460ff191660029081178255546110b49190613337565b600a5560006009819055600b5460048054919290916110d5576110d56132a0565b90600052602060002001819055506001600a01546001600401600081548110611100576111006132a0565b9060005260206000200160008282546111199190613337565b9091555050600b5461112d90600290613360565b600480546001908110611142576111426132a0565b600091825260209091200155600b5461115d90600290613360565b600580546001908110611172576111726132a0565b90600052602060002001600082825461118b9190613337565b90915550505b60405133907f97cc3b25d914dd2d9486f4bcdfcd4717de93e0adc6d57e8fc7657ed12bbc8ff990600090a26002546111cb90600190613337565b9250505b5090565b6000600360015460ff16600c8111156111ee576111ee612d0f565b14806112105750600560015460ff16600c81111561120e5761120e612d0f565b145b806112315750600760015460ff16600c81111561122f5761122f612d0f565b145b806112525750600960015460ff16600c81111561125057611250612d0f565b145b806112745750600b5b60015460ff16600c81111561127257611272612d0f565b145b905090565b6112816121b7565b61128b6000612211565b565b6000611297611a5c565b80156112bc57506001600160a01b038216600090815260106020526040902054600954145b80156112e057506001600160a01b03821660009081526011602052604090205460ff165b92915050565b6112ee612261565b60006112f8612302565b6001805460ff19168117905560408051600081526020810191829052519192506113259160029190612a82565b506040805160008082526020820190925290611351565b606081526020019060019003908161133c5790505b50805161136691600391602090910190612ad7565b50604080516000815260208101918290525161138491600491612a3b565b5060408051600081526020810191829052516113a291600591612a3b565b5060408051600081526020810191829052516113c091600791612b30565b5060408051600081526020810191829052516113de91600891612a3b565b5080516113f290600c906020840190612a3b565b50600d80546001600160a01b03191690556000600f81905560405133917ff6f2dfb811782e90e56f08596136ef247f2187f8e3974795ecf3cb785c95955291a250565b33600081815260106020526040902054600280549192918390811061145c5761145c6132a0565b6000918252602090912001546001600160a01b0316146114b25760405162461bcd60e51b81526020600482015260116024820152701c1b185e595c881b9bdd081a9bda5b9959607a1b60448201526064016104c1565b33600090815260106020526040902054600954146115025760405162461bcd60e51b815260206004820152600d60248201526c3737ba103cb7bab9103a3ab93760991b60448201526064016104c1565b61150a6111d3565b6115565760405162461bcd60e51b815260206004820152601360248201527f63616e6e6f742072657665616c2070726f6f660000000000000000000000000060448201526064016104c1565b816115a35760405162461bcd60e51b815260206004820152600c60248201527f656d7074792070726f6f6673000000000000000000000000000000000000000060448201526064016104c1565b6000600360015460ff16600c8111156115be576115be612d0f565b036115cb57506000611639565b600560015460ff16600c8111156115e4576115e4612d0f565b036115f157506006611639565b600760015460ff16600c81111561160a5761160a612d0f565b0361161757506009611639565b600960015460ff16600c81111561163057611630612d0f565b036116395750600a5b60005b8381101561167f5761166f611651828461330b565b868684818110611663576116636132a0565b905061018002016123cc565b6116788161331e565b905061163c565b50604051839033907f6ba63b210417e31e6dd42cf9fdd13f787ae0b1b4f8b52882bdb5bc0689bca19990600090a36116b5611fe2565b5050505050565b60006116c6611a5c565b80156116eb57506001600160a01b038316600090815260106020526040902054600954145b801561170f57506001600160a01b03831660009081526011602052604090205460ff165b9392505050565b606060008251116117435760405162461bcd60e51b815260206004820152600060248201526044016104c1565b815167ffffffffffffffff81111561175d5761175d613076565b60405190808252806020026020018201604052801561179657816020015b611783612bd0565b81526020019060019003908161177b5790505b50905060005b8251811015611877576000601260019054906101000a90046001600160a01b03166001600160a01b031663ff32e1308584815181106117dd576117dd6132a0565b60200260200101516040518263ffffffff1660e01b815260040161180391815260200190565b61018060405180830381865afa158015611821573d6000803e3d6000fd5b505050506040513d601f19601f8201168201806040525081019061184591906133e2565b90508083838151811061185a5761185a6132a0565b602002602001018190525050806118709061331e565b905061179c565b50919050565b61128b60036124df565b60408051808201825260008082526020820152815180830190925290806118af600d85613360565b60038111156118c0576118c0612d0f565b60038111156118d1576118d1612d0f565b81526020016118e1600d8561347f565b905292915050565b6118f1612bf5565b601260019054906101000a90046001600160a01b03166001600160a01b031663a30be54e6040518163ffffffff1660e01b8152600401610e0060405180830381865afa158015611945573d6000803e3d6000fd5b505050506040513d601f19601f820116820180604052508101906112749190613493565b336000818152601060205260409020546002805491929183908110611990576119906132a0565b6000918252602090912001546001600160a01b0316146119e65760405162461bcd60e51b81526020600482015260116024820152701c1b185e595c881b9bdd081a9bda5b9959607a1b60448201526064016104c1565b33600090815260106020526040902054600580546103e8919083908110611a0f57611a0f6132a0565b906000526020600020016000828254611a28919061330b565b909155505060405133907f1470b3093a08d1e5cbce08bcfb443ca899dbfbed7c4ea161d31a7e8bec695e5e90600090a25050565b6000600460015460ff16600c811115611a7757611a77612d0f565b1480611a995750600660015460ff16600c811115611a9757611a97612d0f565b145b80611aba5750600860015460ff16600c811115611ab857611ab8612d0f565b145b806112745750600a61125b565b600b5460009061127490600290613360565b61128b60016124df565b611aeb6121b7565b6001600160a01b038116611b675760405162461bcd60e51b815260206004820152602660248201527f4f776e61626c653a206e6577206f776e657220697320746865207a65726f206160448201527f646472657373000000000000000000000000000000000000000000000000000060648201526084016104c1565b61045481612211565b336000818152601060205260409020546002805491929183908110611b9757611b976132a0565b6000918252602090912001546001600160a01b031614611bed5760405162461bcd60e51b81526020600482015260116024820152701c1b185e595c881b9bdd081a9bda5b9959607a1b60448201526064016104c1565b3360009081526010602052604090205460095414611c3d5760405162461bcd60e51b815260206004820152600d60248201526c3737ba103cb7bab9103a3ab93760991b60448201526064016104c1565b611c45611a5c565b611c915760405162461bcd60e51b815260206004820152600d60248201527f63616e277420626574206e6f770000000000000000000000000000000000000060448201526064016104c1565b3360009081526010602052604081205490846003811115611cb457611cb4612d0f565b03611e0957611cc333846116bc565b611d0f5760405162461bcd60e51b815260206004820152600b60248201527f63616e6e6f742063616c6c00000000000000000000000000000000000000000060448201526064016104c1565b8260016004018281548110611d2657611d266132a0565b90600052602060002001541015611d7f5760405162461bcd60e51b815260206004820152601360248201527f696e73756666696369656e7420616d6f756e740000000000000000000000000060448201526064016104c1565b8260016004018281548110611d9657611d966132a0565b906000526020600020016000828254611daf9190613337565b90915550506004805484919083908110611dcb57611dcb6132a0565b906000526020600020016000828254611de4919061330b565b9091555050600f8054849190600090611dfe90849061330b565b90915550611f9e9050565b6002846003811115611e1d57611e1d612d0f565b03611e6757611e2c33846116bc565b611d7f5760405162461bcd60e51b815260206004820152600c60248201526b63616e6e6f7420726169736560a01b60448201526064016104c1565b6003846003811115611e7b57611e7b612d0f565b03611ec957611e893361128d565b611ec45760405162461bcd60e51b815260206004820152600c60248201526b63616e6e6f7420726169736560a01b60448201526064016104c1565b611f9e565b6001846003811115611edd57611edd612d0f565b03611f9e57611eeb3361128d565b611f375760405162461bcd60e51b815260206004820152600b60248201527f63616e6e6f7420666f6c6400000000000000000000000000000000000000000060448201526064016104c1565b336000908152601160205260408120805460ff191690556007805483908110611f6257611f626132a0565b90600052602060002090602091828204019190066101000a81548160ff021916908315150217905550611f936124ea565b15611f9e5750505050565b6001806005018281548110611fb557611fb56132a0565b90600052602060002090602091828204019190066101000a81548160ff0219169083151502179055506116b55b60025460009015801590611ffa5750600a5460095414155b156120b1576009805490600061200f8361331e565b90915550506009546002805460009290811061202d5761202d6132a0565b60009182526020808320909101546001600160a01b0316808352601190915260409091205490915060ff1615801561206a57506120686111d3565b155b1561207d57612077611fe2565b91505090565b6009546040517fc943643739af07ca9834a261719f298f1fae902cd0e81b5a232fdc630ba2064890600090a2600091505090565b60015460009060ff16600c8111156120cb576120cb612d0f565b6120d690600161330b565b9050600b8111156121295760405162461bcd60e51b815260206004820152601260248201527f67616d6520616c726561647920656e646564000000000000000000000000000060448201526064016104c1565b80600c81111561213b5761213b612d0f565b6001805460ff19168183600c81111561215657612156612d0f565b021790555080600c81111561216d5761216d612d0f565b600c81111561217e5761217e612d0f565b6040517f822057341a67f757f228faa0e81e193456f287ce1fab94eea8422865716796ba90600090a26121af6125ef565b600191505090565b6000546001600160a01b0316331461128b5760405162461bcd60e51b815260206004820181905260248201527f4f776e61626c653a2063616c6c6572206973206e6f7420746865206f776e657260448201526064016104c1565b600080546001600160a01b038381166001600160a01b0319831681178455604051919092169283917f8be0079c531659141344cd1fd0a4f28419497f9722a3daafe3b4186f6b6457e09190a35050565b600260005b81548110156122fe5760116000838381548110612285576122856132a0565b60009182526020808320909101546001600160a01b031683528201929092526040018120805460ff191690558254601091908490849081106122c9576122c96132a0565b60009182526020808320909101546001600160a01b031683528201929092526040018120556122f78161331e565b9050612266565b5050565b60607f000000000000000000000000000000000000000000000000000000000000000067ffffffffffffffff81111561233d5761233d613076565b604051908082528060200260200182016040528015612366578160200160208202803683370190505b50905060005b7f00000000000000000000000000000000000000000000000000000000000000008110156111cf5761239f81600161330b565b8282815181106123b1576123b16132a0565b60209081029190910101526123c58161331e565b905061236c565b60125461010090046001600160a01b031661241a5760405162461bcd60e51b815260206004820152600e60248201526d32b6b83a3c903b32b934b334b2b960911b60448201526064016104c1565b601254604051630413000360e11b81526101009091046001600160a01b03169063082600069061245090859085906004016134ef565b6020604051808303816000875af115801561246f573d6000803e3d6000fd5b505050506040513d601f19601f8201168201806040525081019061249391906132d3565b6122fe5760405162461bcd60e51b815260206004820152601360248201527f766572696669636174696f6e206661696c65640000000000000000000000000060448201526064016104c1565b610454816000611b70565b60008080805b60075481101561255457600780548290811061250e5761250e6132a0565b90600052602060002090602091828204019190069054906101000a900460ff1615612544578261253d8161331e565b9350508091505b61254d8161331e565b90506124f0565b50816001036125ea576002805482908110612571576125716132a0565b600091825260209091200154600d80546001600160a01b039092166001600160a01b03199092169190911790556001805460ff1916600c179055600f5460058054839081106125c2576125c26132a0565b9060005260206000200160008282546125db919061330b565b90915550506000600f55600192505b505090565b600254600360015460ff16600c81111561260b5761260b612d0f565b0361271a5760005b8181101561271457604080516002808252606082018352909160208301908036833701905050600380548390811061264d5761264d6132a0565b90600052602060002001908051906020019061266a929190612a3b565b50612676816002613514565b600380548390811061268a5761268a6132a0565b906000526020600020016000815481106126a6576126a66132a0565b6000918252602090912001556126bd816002613514565b6126c890600161330b565b60038054839081106126dc576126dc6132a0565b906000526020600020016001815481106126f8576126f86132a0565b60009182526020909120015561270d8161331e565b9050612613565b506128c0565b600560015460ff16600c81111561273357612733612d0f565b036128065760408051600380825260808201909252906020820160608036833750508151612768926008925060200190612a3b565b50612774816002613514565b60088054600090612787576127876132a0565b60009182526020909120015561279e816002613514565b6127a990600161330b565b6008805460019081106127be576127be6132a0565b6000918252602090912001556127d5816002613514565b6127e090600261330b565b6008805460029081106127f5576127f56132a0565b6000918252602090912001556128c0565b600760015460ff16600c81111561281f5761281f612d0f565b03612857576008612831826002613514565b61283c90600361330b565b815460018101835560009283526020909220909101556128c0565b600960015460ff16600c81111561287057612870612d0f565b0361288d576008612882826002613514565b61283c90600461330b565b600c60015460ff16600c8111156128a6576128a6612d0f565b036128b8576128b36128ce565b6128c0565b506000600955565b6128c86129e0565b60095550565b6000805b6002548110156122fe5760078054829081106128f0576128f06132a0565b90600052602060002090602091828204019190069054906101000a900460ff16156129d0576000806001600201838154811061292e5761292e6132a0565b90600052602060002001905060005b815481101561298057818181548110612958576129586132a0565b90600052602060002001548361296e919061330b565b92506129798161331e565b905061293d565b50818410156129cd578193506001800183815481106129a1576129a16132a0565b600091825260209091200154600d80546001600160a01b0319166001600160a01b039092169190911790555b50505b6129d98161331e565b90506128d2565b6000805b6002548110156111cf576007805482908110612a0257612a026132a0565b90600052602060002090602091828204019190069054906101000a900460ff1615612a2b578091505b612a348161331e565b90506129e4565b828054828255906000526020600020908101928215612a76579160200282015b82811115612a76578251825591602001919060010190612a5b565b506111cf929150612c15565b828054828255906000526020600020908101928215612a76579160200282015b82811115612a7657825182546001600160a01b0319166001600160a01b03909116178255602090920191600190910190612aa2565b828054828255906000526020600020908101928215612b24579160200282015b82811115612b245782518051612b14918491602090910190612a3b565b5091602001919060010190612af7565b506111cf929150612c2a565b82805482825590600052602060002090601f01602090048101928215612a765791602002820160005b83821115612b9657835183826101000a81548160ff0219169083151502179055509260200192600101602081600001049283019260010302612b59565b8015612bc35782816101000a81549060ff0219169055600101602081600001049283019260010302612b96565b50506111cf929150612c15565b6040518060400160405280612be3612c47565b8152602001612bf0612c66565b905290565b6040518060400160405280612c08612c47565b8152602001612bf0612c84565b5b808211156111cf5760008155600101612c16565b808211156111cf576000612c3e8282612ca3565b50600101612c2a565b6040518061010001604052806008906020820280368337509192915050565b60405180608001604052806004906020820280368337509192915050565b60405180610d0001604052806068906020820280368337509192915050565b50805460008255906000526020600020908101906104549190612c15565b600060208284031215612cd357600080fd5b5035919050565b6000610e00828403121561187757600080fd5b60008060408385031215612d0057600080fd5b50508035926020909101359150565b634e487b7160e01b600052602160045260246000fd5b600d8110612d3557612d35612d0f565b9052565b600081518084526020808501945080840160005b83811015612d725781516001600160a01b031687529582019590820190600101612d4d565b509495945050505050565b600081518084526020808501945080840160005b83811015612d7257815187529582019590820190600101612d91565b600082825180855260208086019550808260051b84010181860160005b84811015612df857601f19868403018952612de6838351612d7d565b98840198925090830190600101612dca565b5090979650505050505050565b600081518084526020808501945080840160005b83811015612d72578151151587529582019590820190600101612e19565b60208152612e49602082018351612d25565b600060208301516101e0806040850152612e67610200850183612d39565b91506040850151601f1980868503016060870152612e858483612dad565b93506060870151915080868503016080870152612ea28483612d7d565b935060808701519150808685030160a0870152612ebf8483612d7d565b935060a08701519150808685030160c0870152612edc8483612e05565b935060c08701519150808685030160e0870152612ef98483612e05565b935060e08701519150610100818786030181880152612f188584612d7d565b908801516101208881019190915288015161014080890191909152880151610160808901919091528801518782038301610180808a01919091529195509250612f618584612d7d565b945080880151925050506101a0612f82818701836001600160a01b03169052565b8601516101c0868101919091529095015193019290925250919050565b80356001600160a01b0381168114612fb657600080fd5b919050565b600060208284031215612fcd57600080fd5b61170f82612f9f565b60008060208385031215612fe957600080fd5b823567ffffffffffffffff8082111561300157600080fd5b818501915085601f83011261301557600080fd5b81358181111561302457600080fd5b8660206101808302850101111561303a57600080fd5b60209290920196919550909350505050565b6000806040838503121561305f57600080fd5b61306883612f9f565b946020939093013593505050565b634e487b7160e01b600052604160045260246000fd5b6040805190810167ffffffffffffffff811182821017156130af576130af613076565b60405290565b604051601f8201601f1916810167ffffffffffffffff811182821017156130de576130de613076565b604052919050565b600060208083850312156130f957600080fd5b823567ffffffffffffffff8082111561311157600080fd5b818501915085601f83011261312557600080fd5b81358181111561313757613137613076565b8060051b91506131488483016130b5565b818152918301840191848101908884111561316257600080fd5b938501935b8385101561318057843582529385019390850190613167565b98975050505050505050565b8060005b60088110156106db578151845260209384019390910190600101613190565b602080825282518282018190526000919084820190604085019084805b8281101561321f5784516131e185825161318c565b8601516101008501835b6004811015613208578251825291880191908801906001016131eb565b5050509385019361018093909301926001016131cc565b5091979650505050505050565b815160408201906004811061324357613243612d0f565b808352506020830151602083015292915050565b6000610e008201905061326b82845161318c565b602080840151610100840160005b606881101561329657825182529183019190830190600101613279565b5050505092915050565b634e487b7160e01b600052603260045260246000fd5b610e00810161010080848437610d00818501828501375092915050565b6000602082840312156132e557600080fd5b8151801515811461170f57600080fd5b634e487b7160e01b600052601160045260246000fd5b808201808211156112e0576112e06132f5565b600060018201613330576133306132f5565b5060010190565b818103818111156112e0576112e06132f5565b634e487b7160e01b600052601260045260246000fd5b60008261336f5761336f61334a565b500490565b600082601f83011261338557600080fd5b60405161010080820182811067ffffffffffffffff821117156133aa576133aa613076565b604052830181858211156133bd57600080fd5b845b828110156133d75780518252602091820191016133bf565b509195945050505050565b60006101808083850312156133f657600080fd5b6133fe61308c565b6134088585613374565b81528461011f85011261341a57600080fd5b6040516080810181811067ffffffffffffffff8211171561343d5761343d613076565b60405291840191808684111561345257600080fd5b61010086015b84811015613470578051825260209182019101613458565b50506020820152949350505050565b60008261348e5761348e61334a565b500690565b6000610e008083850312156134a757600080fd5b6134af61308c565b6134b98585613374565b81528461011f8501126134cb57600080fd5b604051610d00810181811067ffffffffffffffff8211171561343d5761343d613076565b8281526101a08101610100808460208501376080818501610120850137509392505050565b80820281158282048414176112e0576112e06132f556fea164736f6c6343000811000a",
  "devdoc": {
    "kind": "dev",
    "methods": {
      "owner()": {
        "details": "Returns the address of the current owner."
      },
      "renounceOwnership()": {
        "details": "Leaves the contract without owner. It will not be possible to call `onlyOwner` functions anymore. Can only be called by the current owner. NOTE: Renouncing ownership will leave the contract without an owner, thereby removing any functionality that is only available to the owner."
      },
      "transferOwnership(address)": {
        "details": "Transfers ownership of the contract to a new account (`newOwner`). Can only be called by the current owner."
      }
    },
    "version": 1
  },
  "userdoc": {
    "kind": "user",
    "methods": {},
    "version": 1
  },
  "storageLayout": {
    "storage": [
      {
        "astId": 7,
        "contract": "contracts/v2/BoardManager.sol:BoardManager",
        "label": "_owner",
        "offset": 0,
        "slot": "0",
        "type": "t_address"
      },
      {
        "astId": 156,
        "contract": "contracts/v2/BoardManager.sol:BoardManager",
        "label": "board",
        "offset": 0,
        "slot": "1",
        "type": "t_struct(Board)1932_storage"
      },
      {
        "astId": 160,
        "contract": "contracts/v2/BoardManager.sol:BoardManager",
        "label": "playerIndexesMap",
        "offset": 0,
        "slot": "16",
        "type": "t_mapping(t_address,t_uint256)"
      },
      {
        "astId": 164,
        "contract": "contracts/v2/BoardManager.sol:BoardManager",
        "label": "playerInPotsMap",
        "offset": 0,
        "slot": "17",
        "type": "t_mapping(t_address,t_bool)"
      },
      {
        "astId": 166,
        "contract": "contracts/v2/BoardManager.sol:BoardManager",
        "label": "globalPaused",
        "offset": 0,
        "slot": "18",
        "type": "t_bool"
      },
      {
        "astId": 168,
        "contract": "contracts/v2/BoardManager.sol:BoardManager",
        "label": "verifier",
        "offset": 1,
        "slot": "18",
        "type": "t_address"
      }
    ],
    "types": {
      "t_address": {
        "encoding": "inplace",
        "label": "address",
        "numberOfBytes": "20"
      },
      "t_array(t_address)dyn_storage": {
        "base": "t_address",
        "encoding": "dynamic_array",
        "label": "address[]",
        "numberOfBytes": "32"
      },
      "t_array(t_array(t_uint256)dyn_storage)dyn_storage": {
        "base": "t_array(t_uint256)dyn_storage",
        "encoding": "dynamic_array",
        "label": "uint256[][]",
        "numberOfBytes": "32"
      },
      "t_array(t_bool)dyn_storage": {
        "base": "t_bool",
        "encoding": "dynamic_array",
        "label": "bool[]",
        "numberOfBytes": "32"
      },
      "t_array(t_uint256)dyn_storage": {
        "base": "t_uint256",
        "encoding": "dynamic_array",
        "label": "uint256[]",
        "numberOfBytes": "32"
      },
      "t_bool": {
        "encoding": "inplace",
        "label": "bool",
        "numberOfBytes": "1"
      },
      "t_enum(GameStage)1880": {
        "encoding": "inplace",
        "label": "enum GameStage",
        "numberOfBytes": "1"
      },
      "t_mapping(t_address,t_bool)": {
        "encoding": "mapping",
        "key": "t_address",
        "label": "mapping(address => bool)",
        "numberOfBytes": "32",
        "value": "t_bool"
      },
      "t_mapping(t_address,t_uint256)": {
        "encoding": "mapping",
        "key": "t_address",
        "label": "mapping(address => uint256)",
        "numberOfBytes": "32",
        "value": "t_uint256"
      },
      "t_struct(Board)1932_storage": {
        "encoding": "inplace",
        "label": "struct Board",
        "members": [
          {
            "astId": 1894,
            "contract": "contracts/v2/BoardManager.sol:BoardManager",
            "label": "stage",
            "offset": 0,
            "slot": "0",
            "type": "t_enum(GameStage)1880"
          },
          {
            "astId": 1897,
            "contract": "contracts/v2/BoardManager.sol:BoardManager",
            "label": "playerAddresses",
            "offset": 0,
            "slot": "1",
            "type": "t_array(t_address)dyn_storage"
          },
          {
            "astId": 1901,
            "contract": "contracts/v2/BoardManager.sol:BoardManager",
            "label": "playerHands",
            "offset": 0,
            "slot": "2",
            "type": "t_array(t_array(t_uint256)dyn_storage)dyn_storage"
          },
          {
            "astId": 1904,
            "contract": "contracts/v2/BoardManager.sol:BoardManager",
            "label": "playerBets",
            "offset": 0,
            "slot": "3",
            "type": "t_array(t_uint256)dyn_storage"
          },
          {
            "astId": 1907,
            "contract": "contracts/v2/BoardManager.sol:BoardManager",
            "label": "playerStacks",
            "offset": 0,
            "slot": "4",
            "type": "t_array(t_uint256)dyn_storage"
          },
          {
            "astId": 1910,
            "contract": "contracts/v2/BoardManager.sol:BoardManager",
            "label": "playersDoneForCurrentStage",
            "offset": 0,
            "slot": "5",
            "type": "t_array(t_bool)dyn_storage"
          },
          {
            "astId": 1913,
            "contract": "contracts/v2/BoardManager.sol:BoardManager",
            "label": "playerInPots",
            "offset": 0,
            "slot": "6",
            "type": "t_array(t_bool)dyn_storage"
          },
          {
            "astId": 1916,
            "contract": "contracts/v2/BoardManager.sol:BoardManager",
            "label": "communityCards",
            "offset": 0,
            "slot": "7",
            "type": "t_array(t_uint256)dyn_storage"
          },
          {
            "astId": 1918,
            "contract": "contracts/v2/BoardManager.sol:BoardManager",
            "label": "nextPlayerToPlay",
            "offset": 0,
            "slot": "8",
            "type": "t_uint256"
          },
          {
            "astId": 1920,
            "contract": "contracts/v2/BoardManager.sol:BoardManager",
            "label": "dealerIndex",
            "offset": 0,
            "slot": "9",
            "type": "t_uint256"
          },
          {
            "astId": 1922,
            "contract": "contracts/v2/BoardManager.sol:BoardManager",
            "label": "bigBlindSize",
            "offset": 0,
            "slot": "10",
            "type": "t_uint256"
          },
          {
            "astId": 1925,
            "contract": "contracts/v2/BoardManager.sol:BoardManager",
            "label": "deck",
            "offset": 0,
            "slot": "11",
            "type": "t_array(t_uint256)dyn_storage"
          },
          {
            "astId": 1927,
            "contract": "contracts/v2/BoardManager.sol:BoardManager",
            "label": "winner",
            "offset": 0,
            "slot": "12",
            "type": "t_address"
          },
          {
            "astId": 1929,
            "contract": "contracts/v2/BoardManager.sol:BoardManager",
            "label": "requiredPlayers",
            "offset": 0,
            "slot": "13",
            "type": "t_uint256"
          },
          {
            "astId": 1931,
            "contract": "contracts/v2/BoardManager.sol:BoardManager",
            "label": "potSize",
            "offset": 0,
            "slot": "14",
            "type": "t_uint256"
          }
        ],
        "numberOfBytes": "480"
      },
      "t_uint256": {
        "encoding": "inplace",
        "label": "uint256",
        "numberOfBytes": "32"
      }
    }
  }
}