{
  "address": "0xD2955F7d72bF57a764094d0736150881213d4263",
  "abi": [
    {
      "inputs": [
        {
          "internalType": "contract IEncryptVerifier",
          "name": "encrypt_verifier_",
          "type": "address"
        },
        {
          "internalType": "contract IDEcryptVerifier",
          "name": "decrypt_verifier_",
          "type": "address"
        }
      ],
      "stateMutability": "nonpayable",
      "type": "constructor"
    },
    {
      "anonymous": false,
      "inputs": [
        {
          "indexed": true,
          "internalType": "address",
          "name": "previousOwner",
          "type": "address"
        },
        {
          "indexed": true,
          "internalType": "address",
          "name": "newOwner",
          "type": "address"
        }
      ],
      "name": "OwnershipTransferred",
      "type": "event"
    },
    {
      "anonymous": false,
      "inputs": [],
      "name": "Setup",
      "type": "event"
    },
    {
      "inputs": [],
      "name": "decrypt_verifier",
      "outputs": [
        {
          "internalType": "contract IDEcryptVerifier",
          "name": "",
          "type": "address"
        }
      ],
      "stateMutability": "view",
      "type": "function"
    },
    {
      "inputs": [],
      "name": "encrypt_verifier",
      "outputs": [
        {
          "internalType": "contract IEncryptVerifier",
          "name": "",
          "type": "address"
        }
      ],
      "stateMutability": "view",
      "type": "function"
    },
    {
      "inputs": [],
      "name": "game",
      "outputs": [
        {
          "internalType": "address",
          "name": "",
          "type": "address"
        }
      ],
      "stateMutability": "view",
      "type": "function"
    },
    {
      "inputs": [
        {
          "internalType": "uint256",
          "name": "cardIndex",
          "type": "uint256"
        }
      ],
      "name": "getRevealProof",
      "outputs": [
        {
          "components": [
            {
              "internalType": "uint256[8]",
              "name": "proof",
              "type": "uint256[8]"
            },
            {
              "internalType": "uint256[4]",
              "name": "card",
              "type": "uint256[4]"
            }
          ],
          "internalType": "struct RevealProof",
          "name": "",
          "type": "tuple"
        }
      ],
      "stateMutability": "view",
      "type": "function"
    },
    {
      "inputs": [],
      "name": "getShuffleProof",
      "outputs": [
        {
          "components": [
            {
              "internalType": "uint256[8]",
              "name": "proof",
              "type": "uint256[8]"
            },
            {
              "internalType": "uint256[104]",
              "name": "deck",
              "type": "uint256[104]"
            }
          ],
          "internalType": "struct ShuffleProof",
          "name": "",
          "type": "tuple"
        }
      ],
      "stateMutability": "view",
      "type": "function"
    },
    {
      "inputs": [],
      "name": "owner",
      "outputs": [
        {
          "internalType": "address",
          "name": "",
          "type": "address"
        }
      ],
      "stateMutability": "view",
      "type": "function"
    },
    {
      "inputs": [],
      "name": "renounceOwnership",
      "outputs": [],
      "stateMutability": "nonpayable",
      "type": "function"
    },
    {
      "inputs": [
        {
          "internalType": "uint256[104]",
          "name": "startingDeck",
          "type": "uint256[104]"
        }
      ],
      "name": "setup",
      "outputs": [
        {
          "internalType": "bool",
          "name": "",
          "type": "bool"
        }
      ],
      "stateMutability": "nonpayable",
      "type": "function"
    },
    {
      "inputs": [
        {
          "internalType": "uint256",
          "name": "pk_",
          "type": "uint256"
        }
      ],
      "name": "setupPK",
      "outputs": [],
      "stateMutability": "nonpayable",
      "type": "function"
    },
    {
      "inputs": [
        {
          "internalType": "address",
          "name": "newOwner",
          "type": "address"
        }
      ],
      "name": "transferOwnership",
      "outputs": [],
      "stateMutability": "nonpayable",
      "type": "function"
    },
    {
      "inputs": [
        {
          "internalType": "uint256",
          "name": "cardStartIndex",
          "type": "uint256"
        },
        {
          "components": [
            {
              "internalType": "uint256[8]",
              "name": "proof",
              "type": "uint256[8]"
            },
            {
              "internalType": "uint256[4]",
              "name": "card",
              "type": "uint256[4]"
            }
          ],
          "internalType": "struct RevealProof",
          "name": "proof",
          "type": "tuple"
        }
      ],
      "name": "verifyRevealAndSave",
      "outputs": [
        {
          "internalType": "bool",
          "name": "",
          "type": "bool"
        }
      ],
      "stateMutability": "nonpayable",
      "type": "function"
    },
    {
      "inputs": [
        {
          "components": [
            {
              "internalType": "uint256[8]",
              "name": "proof",
              "type": "uint256[8]"
            },
            {
              "internalType": "uint256[104]",
              "name": "deck",
              "type": "uint256[104]"
            }
          ],
          "internalType": "struct ShuffleProof",
          "name": "proof",
          "type": "tuple"
        }
      ],
      "name": "verifyShuffleAndSave",
      "outputs": [
        {
          "internalType": "bool",
          "name": "",
          "type": "bool"
        }
      ],
      "stateMutability": "nonpayable",
      "type": "function"
    }
  ],
  "transactionHash": "0x0ab348bb365d6e8ef1ebb05d10fdf0ab516a98a0e92b7d3e0853d79ded07db07",
  "args": [
    "0xFf37148b4b402945b856fCb0664097c4fE310372",
    "0x95995717ee54dAC884a184A6e1F160a211315bEB"
  ],
  "numDeployments": 2,
  "solcInputHash": "3b9acf00d9b11bb0c29b8fc9a6c63fb6",
  "bytecode": "0x608060405234801561001057600080fd5b50604051610d86380380610d8683398101604081905261002f916100d1565b61003833610069565b607480546001600160a01b039384166001600160a01b0319918216179091556075805492909316911617905561010b565b600080546001600160a01b038381166001600160a01b0319831681178455604051919092169283917f8be0079c531659141344cd1fd0a4f28419497f9722a3daafe3b4186f6b6457e09190a35050565b6001600160a01b03811681146100ce57600080fd5b50565b600080604083850312156100e457600080fd5b82516100ef816100b9565b6020840151909250610100816100b9565b809150509250929050565b610c6c8061011a6000396000f3fe608060405234801561001057600080fd5b50600436106100d45760003560e01c80639096a6af11610081578063c3fe3e281161005b578063c3fe3e28146101a8578063f2fde38b146101bb578063ff32e130146101ce57600080fd5b80639096a6af1461016d578063a30be54e14610180578063b984e3ea1461019557600080fd5b80631862bf27116100b25780631862bf2714610141578063715018a6146101545780638da5cb5b1461015c57600080fd5b806308260006146100d957806311e2608514610101578063157fee5014610116575b600080fd5b6100ec6100e7366004610910565b6101ee565b60405190151581526020015b60405180910390f35b61011461010f36600461094a565b607155565b005b607454610129906001600160a01b031681565b6040516001600160a01b0390911681526020016100f8565b6100ec61014f366004610963565b6102ff565b61011461049e565b6000546001600160a01b0316610129565b6100ec61017b36600461097c565b6104b2565b610188610569565b6040516100f891906109d0565b607554610129906001600160a01b031681565b607354610129906001600160a01b031681565b6101146101c9366004610a19565b6105ea565b6101e16101dc36600461094a565b61067f565b6040516100f89190610a49565b6075546040805180820182528335815260208085013581830152825160808082018552868501358286019081526060808901359084015282528451808601865290870135815260a087013581840152818301528351808501855260c0870135815260e0870135928101929092529251635fe8c13b60e01b81526000946001600160a01b031693635fe8c13b9361028e939092610100890190600401610aef565b60006040518083038186803b1580156102a657600080fd5b505afa1580156102ba573d6000803e3d6000fd5b50505060008481526072602052604090208391506102d88282610b40565b5050610100820135600984606881106102f3576102f3610a88565b01555060015b92915050565b60006103096107d0565b60005b6068811015610359578361010001816068811061032b5761032b610a88565b6020020135828260d1811061034257610342610a88565b60200201528061035181610b8b565b91505061030c565b5060005b60688110156103ae576009816068811061037957610379610a88565b015482610387836068610ba4565b60d1811061039757610397610a88565b6020020152806103a681610b8b565b91505061035d565b50607154611a008201526074546040805180820182528535815260208087013581830152825160808082018552888501358286019081526060808b01359084015282528451808601865290890135815260a089013581840152818301528351808501855260c0890135815260e089013592810192909252925163da0db35360e01b81526001600160a01b039094169363da0db35393610454939290918790600401610bb7565b60006040518083038186803b15801561046c57600080fd5b505afa158015610480573d6000803e3d6000fd5b5050505082600181816104939190610c14565b506001949350505050565b6104a661070e565b6104b06000610768565b565b6000806040518061010001604052806000815260200160008152602001600081526020016000815260200160008152602001600081526020016000815260200160008152509050604051806040016040528082815260200184606880602002604051908101604052809291908260686020028082843760009201919091525050509052805160019061054790829060086107ef565b50602082015161055d906008830190606861082d565b50600195945050505050565b61057161085a565b60408051610140810180835290916001918391820190839060089082845b81548152602001906001019080831161058f57505050918352505060408051610d0081019182905260209092019190600884019060689082845b8154815260200190600101908083116105c957505050505081525050905090565b6105f261070e565b6001600160a01b0381166106735760405162461bcd60e51b815260206004820152602660248201527f4f776e61626c653a206e6577206f776e657220697320746865207a65726f206160448201527f646472657373000000000000000000000000000000000000000000000000000060648201526084015b60405180910390fd5b61067c81610768565b50565b61068761087f565b6000828152607260205260409081902081516101408101835291829081018260088282826020028201915b8154815260200190600101908083116106b257505050918352505060408051608081019182905260209092019190600884019060049082845b8154815260200190600101908083116106eb575050505050815250509050919050565b6000546001600160a01b031633146104b05760405162461bcd60e51b815260206004820181905260248201527f4f776e61626c653a2063616c6c6572206973206e6f7420746865206f776e6572604482015260640161066a565b600080546001600160a01b038381167fffffffffffffffffffffffff0000000000000000000000000000000000000000831681178455604051919092169283917f8be0079c531659141344cd1fd0a4f28419497f9722a3daafe3b4186f6b6457e09190a35050565b60405180611a20016040528060d1906020820280368337509192915050565b826008810192821561081d579160200282015b8281111561081d578251825591602001919060010190610802565b5061082992915061089f565b5090565b826068810192821561081d579160200282018281111561081d578251825591602001919060010190610802565b604051806040016040528061086d6108b4565b815260200161087a6108d3565b905290565b60405180604001604052806108926108b4565b815260200161087a6108f2565b5b8082111561082957600081556001016108a0565b6040518061010001604052806008906020820280368337509192915050565b60405180610d0001604052806068906020820280368337509192915050565b60405180608001604052806004906020820280368337509192915050565b6000808284036101a081121561092557600080fd5b83359250610180601f198201121561093c57600080fd5b506020830190509250929050565b60006020828403121561095c57600080fd5b5035919050565b6000610e00828403121561097657600080fd5b50919050565b6000610d0080838503121561099057600080fd5b83818401111561099f57600080fd5b509092915050565b8060005b60088110156109ca5781518452602093840193909101906001016109ab565b50505050565b6000610e00820190506109e48284516109a7565b602080840151610100840160005b6068811015610a0f578251825291830191908301906001016109f2565b5050505092915050565b600060208284031215610a2b57600080fd5b81356001600160a01b0381168114610a4257600080fd5b9392505050565b600061018082019050610a5d8284516109a7565b602080840151610100840160005b6004811015610a0f57825182529183019190830190600101610a6b565b634e487b7160e01b600052603260045260246000fd5b8060005b60028110156109ca578151845260209384019390910190600101610aa2565b8060005b60028110156109ca57610ad9848351610a9e565b6040939093019260209190910190600101610ac5565b6101808101610afe8287610a9e565b610b0b6040830186610ac1565b610b1860c0830185610a9e565b60808361010084013795945050505050565b634e487b7160e01b600052601160045260246000fd5b8160005b6008811015610b6157813583820155602090910190600101610b44565b5050610100820160005b60048110156109ca57813583820160080155602090910190600101610b6b565b600060018201610b9d57610b9d610b2a565b5060010190565b808201808211156102f9576102f9610b2a565b611b208101610bc68287610a9e565b610bd36040830186610ac1565b610be060c0830185610a9e565b61010082018360005b60d1811015610c08578151835260209283019290910190600101610be9565b50505095945050505050565b8160005b6008811015610c3557813583820155602090910190600101610c18565b5050610100820160005b60688110156109ca57813583820160080155602090910190600101610c3f56fea164736f6c6343000811000a",
  "devdoc": {
    "kind": "dev",
    "methods": {
      "owner()": {
        "details": "Returns the address of the current owner."
      },
      "renounceOwnership()": {
        "details": "Leaves the contract without owner. It will not be possible to call `onlyOwner` functions anymore. Can only be called by the current owner. NOTE: Renouncing ownership will leave the contract without an owner, thereby removing any functionality that is only available to the owner."
      },
      "transferOwnership(address)": {
        "details": "Transfers ownership of the contract to a new account (`newOwner`). Can only be called by the current owner."
      }
    },
    "version": 1
  },
  "userdoc": {
    "kind": "user",
    "methods": {},
    "version": 1
  },
  "storageLayout": {
    "storage": [
      {
        "astId": 7,
        "contract": "contracts/v2/Verifier.sol:Verifier",
        "label": "_owner",
        "offset": 0,
        "slot": "0",
        "type": "t_address"
      },
      {
        "astId": 5045,
        "contract": "contracts/v2/Verifier.sol:Verifier",
        "label": "shuffleProof",
        "offset": 0,
        "slot": "1",
        "type": "t_struct(ShuffleProof)5031_storage"
      },
      {
        "astId": 5047,
        "contract": "contracts/v2/Verifier.sol:Verifier",
        "label": "pk",
        "offset": 0,
        "slot": "113",
        "type": "t_uint256"
      },
      {
        "astId": 5052,
        "contract": "contracts/v2/Verifier.sol:Verifier",
        "label": "revealProofs",
        "offset": 0,
        "slot": "114",
        "type": "t_mapping(t_uint256,t_struct(RevealProof)5040_storage)"
      },
      {
        "astId": 5054,
        "contract": "contracts/v2/Verifier.sol:Verifier",
        "label": "game",
        "offset": 0,
        "slot": "115",
        "type": "t_address"
      },
      {
        "astId": 5059,
        "contract": "contracts/v2/Verifier.sol:Verifier",
        "label": "encrypt_verifier",
        "offset": 0,
        "slot": "116",
        "type": "t_contract(IEncryptVerifier)5000"
      },
      {
        "astId": 5062,
        "contract": "contracts/v2/Verifier.sol:Verifier",
        "label": "decrypt_verifier",
        "offset": 0,
        "slot": "117",
        "type": "t_contract(IDEcryptVerifier)5022"
      }
    ],
    "types": {
      "t_address": {
        "encoding": "inplace",
        "label": "address",
        "numberOfBytes": "20"
      },
      "t_array(t_uint256)104_storage": {
        "base": "t_uint256",
        "encoding": "inplace",
        "label": "uint256[104]",
        "numberOfBytes": "3328"
      },
      "t_array(t_uint256)4_storage": {
        "base": "t_uint256",
        "encoding": "inplace",
        "label": "uint256[4]",
        "numberOfBytes": "128"
      },
      "t_array(t_uint256)8_storage": {
        "base": "t_uint256",
        "encoding": "inplace",
        "label": "uint256[8]",
        "numberOfBytes": "256"
      },
      "t_contract(IDEcryptVerifier)5022": {
        "encoding": "inplace",
        "label": "contract IDEcryptVerifier",
        "numberOfBytes": "20"
      },
      "t_contract(IEncryptVerifier)5000": {
        "encoding": "inplace",
        "label": "contract IEncryptVerifier",
        "numberOfBytes": "20"
      },
      "t_mapping(t_uint256,t_struct(RevealProof)5040_storage)": {
        "encoding": "mapping",
        "key": "t_uint256",
        "label": "mapping(uint256 => struct RevealProof)",
        "numberOfBytes": "32",
        "value": "t_struct(RevealProof)5040_storage"
      },
      "t_struct(RevealProof)5040_storage": {
        "encoding": "inplace",
        "label": "struct RevealProof",
        "members": [
          {
            "astId": 5035,
            "contract": "contracts/v2/Verifier.sol:Verifier",
            "label": "proof",
            "offset": 0,
            "slot": "0",
            "type": "t_array(t_uint256)8_storage"
          },
          {
            "astId": 5039,
            "contract": "contracts/v2/Verifier.sol:Verifier",
            "label": "card",
            "offset": 0,
            "slot": "8",
            "type": "t_array(t_uint256)4_storage"
          }
        ],
        "numberOfBytes": "384"
      },
      "t_struct(ShuffleProof)5031_storage": {
        "encoding": "inplace",
        "label": "struct ShuffleProof",
        "members": [
          {
            "astId": 5026,
            "contract": "contracts/v2/Verifier.sol:Verifier",
            "label": "proof",
            "offset": 0,
            "slot": "0",
            "type": "t_array(t_uint256)8_storage"
          },
          {
            "astId": 5030,
            "contract": "contracts/v2/Verifier.sol:Verifier",
            "label": "deck",
            "offset": 0,
            "slot": "8",
            "type": "t_array(t_uint256)104_storage"
          }
        ],
        "numberOfBytes": "3584"
      },
      "t_uint256": {
        "encoding": "inplace",
        "label": "uint256",
        "numberOfBytes": "32"
      }
    }
  }
}