{
  "address": "0x1e050329D0383B7DfD468bAed354c40A497ef30D",
  "abi": [
    {
      "inputs": [],
      "name": "verifyingKey",
      "outputs": [
        {
          "components": [
            {
              "components": [
                {
                  "internalType": "uint256",
                  "name": "X",
                  "type": "uint256"
                },
                {
                  "internalType": "uint256",
                  "name": "Y",
                  "type": "uint256"
                }
              ],
              "internalType": "struct encryptPairing.G1Point",
              "name": "alfa1",
              "type": "tuple"
            },
            {
              "components": [
                {
                  "internalType": "uint256[2]",
                  "name": "X",
                  "type": "uint256[2]"
                },
                {
                  "internalType": "uint256[2]",
                  "name": "Y",
                  "type": "uint256[2]"
                }
              ],
              "internalType": "struct encryptPairing.G2Point",
              "name": "beta2",
              "type": "tuple"
            },
            {
              "components": [
                {
                  "internalType": "uint256[2]",
                  "name": "X",
                  "type": "uint256[2]"
                },
                {
                  "internalType": "uint256[2]",
                  "name": "Y",
                  "type": "uint256[2]"
                }
              ],
              "internalType": "struct encryptPairing.G2Point",
              "name": "gamma2",
              "type": "tuple"
            },
            {
              "components": [
                {
                  "internalType": "uint256[2]",
                  "name": "X",
                  "type": "uint256[2]"
                },
                {
                  "internalType": "uint256[2]",
                  "name": "Y",
                  "type": "uint256[2]"
                }
              ],
              "internalType": "struct encryptPairing.G2Point",
              "name": "delta2",
              "type": "tuple"
            },
            {
              "components": [
                {
                  "internalType": "uint256",
                  "name": "X",
                  "type": "uint256"
                },
                {
                  "internalType": "uint256",
                  "name": "Y",
                  "type": "uint256"
                }
              ],
              "internalType": "struct encryptPairing.G1Point[]",
              "name": "IC",
              "type": "tuple[]"
            }
          ],
          "internalType": "struct VerifyingKey",
          "name": "vk",
          "type": "tuple"
        }
      ],
      "stateMutability": "pure",
      "type": "function"
    }
  ],
  "transactionHash": "0xe2827560e7b4f15d99e141a95ce5f5f74c25cdc1d5649ffc03c6ebf2a909b033",
  "args": [],
  "numDeployments": 1,
  "solcInputHash": "3b9acf00d9b11bb0c29b8fc9a6c63fb6",
  "bytecode": "0x61350c61003a600b82828239805160001a60731461002d57634e487b7160e01b600052600060045260246000fd5b30600052607381538281f3fe73000000000000000000000000000000000000000030146080604052600436106100355760003560e01c80637950c5f81461003a575b600080fd5b610042610058565b60405161004f9190613436565b60405180910390f35b610060613357565b6040805180820182527f1fca1bffff5750f207496f33135c888c3dc6c589c3eb1d0f44d774c08ae320f081527f2a05aee3af55d392d74cedb842b695f3806cd2f828f69569cd08041b0688a1286020808301919091529083528151608080820184527f0d1700570d923e05206d96ccc16acb0e3254f2457e45ebe17b61606a08cb2ab48285019081527f1aa71292d71a3848cf3465f3d525a5e3b1e6a768e0129bdda9af0f7d148c033a606080850191909152908352845180860186527f15723e47d438024acc79a1ae32c51a2d97e88a6dd21ef853ee90d366b9cd6eea81527f1f90a741bce27cebb5713e13fad2aab919d50f67a4d45030705abe845c96adee818601528385015285840192909252835180820185527f198e9393920d483a7260bfb731fb5d25f1aa493335a9e71297e485b7aef312c28186019081527f1800deef121f1e76426a00665e5c4479674322d4f75edadd46debd5cd992f6ed828501528152845180860186527f090689d0585ff075ec9e99ad690c3395bc4b313370b38ef355acdadcd122975b81527f12c85ea5db8c6deb4aab71808dcb408fe3d1e7690c43d37b4ce6cc0166fa7daa818601528185015285850152835190810184527f22153db3ad2a31bd8d096910ba17d774ee7b0e912c7f948f03434d4ee344aa398185019081527e5c82530f8641f12ee547e85b85f73f9064b00d927dd67637fe558eae4c00f9828401528152835180850185527f27e81aa71174babde8806d7ddab5c5f470985b24bf76c49a5da8af9f102831b981527f222fe0b0883778d18377de315c67b6f83974e51b755cc26e20d14acd423d4ebf81850152818401529084015281516068808252610d208201909352919082015b60408051808201909152600080825260208201528152602001906001900390816102db57505060808201908152604080518082019091527f204330f435e7e8e79ee4a24d23cf453634673aac378e844f9596e2859e2554bc81527f12d413173148efa5a0f0a64e9d9f5ba44b8729529bcf3187428f07a2c1026b8d60208201529051805160009061036e5761036e6134e9565b602002602001018190525060405180604001604052807f17e37c1fe513efbf5efa4332a65a919b2e55744dcae8b2f73f9d63a55bcedfbe81526020017f0d8a0d7f638160d18373f0567f8d0f6cda3fca9c4012b0eb6ec5e21eb798ed0b81525081608001516001815181106103e5576103e56134e9565b602002602001018190525060405180604001604052807f082637b2132b0458984cac6c2c19c5a0d8a4959caf00b62f067e84be84bd185e81526020017f14fe33ddf63f5f924c262689541d0ea3223ef24bef3f23e3e099aaded8071497815250816080015160028151811061045c5761045c6134e9565b602002602001018190525060405180604001604052807f02bbed4d6edcfccc22646a24c09f850abeb57a4e9ad44749b4b637104481fdef81526020017f27b6e5fa5b4951da0d26c9b836b90496a109ddd8faa0f152d64b93b1c56199ce81525081608001516003815181106104d3576104d36134e9565b602002602001018190525060405180604001604052807f26ce912d9fb87f8c85ea1b2910ea061d76fa406674a152ed0af11c39706645a381526020017f2de6333ce7aade4d62747319dd4445c43bab880e39ff6c06be87edcc8931cac9815250816080015160048151811061054a5761054a6134e9565b602002602001018190525060405180604001604052807f0e057df68de0a955709e0aa2e6cb9f52eec06bf5ff2bf11b7a9ea186db22b93681526020017f2bdfbe502eb2b953d541dff9e14b1668bdd2d1290098a107fe5075f2184e0f9181525081608001516005815181106105c1576105c16134e9565b602002602001018190525060405180604001604052807f07d021c06c10e3e13881c067b57430e84594c8bbe0d40e02f9a9639ce5ca21ff81526020017f2b1a106541b2fa762e7f33cd1b71b758f5af4a06ee897ec00655178a62e4a0138152508160800151600681518110610638576106386134e9565b602002602001018190525060405180604001604052807f0e6f91d3eb6be77bba6480071e11ab1d58c66b282891126215419e547fd7dbc481526020017f2df14940e4e7fea67fc95de5a10623404139eae1b4ebf8939d9cb6ea934c753b81525081608001516007815181106106af576106af6134e9565b602002602001018190525060405180604001604052807f21ac3054a6e66544eec2da5317ac9a6fd71f3c84a68fe23bb91fe999f7ff1b6a81526020017f0957f151f2b0ade28f0b4d293f515411268dabc74172492147c1eafd1e654a028152508160800151600881518110610726576107266134e9565b602002602001018190525060405180604001604052807f0fe76b5b15f00a0295ecf8da71074de77fd0a3ce817c5fc5170d32bb0f5752b481526020017f2ff83824120fa3b1705f3201186f5ace7fc5b7f59a7b8a724853d066152d73c9815250816080015160098151811061079d5761079d6134e9565b602002602001018190525060405180604001604052807f1f2b9cc74b2b024d887d1de02460c8c10eda696ba9c21d0f69ee0b260f66376d81526020017f2c8d09289c106c7bf6133fee2e7f577e86e25d05302ff63641a3b69c0f61761c8152508160800151600a81518110610814576108146134e9565b602002602001018190525060405180604001604052807f09ca00ca646fbe287f618bd1096b01b2a1a3a5f09af16063e2c5b29beb42624c81526020017f23a192c4c2ffab299c1aa87641974abcf95cd7c187b1b87f88c14ccb051ea1e08152508160800151600b8151811061088b5761088b6134e9565b602002602001018190525060405180604001604052807f1906f245a41da8af03eeaaf2d3fa310024497ffa01a30f9d7c56f01d3d0968d581526020017efc3394b79c6405566e2e7803df40c57c09a21ec5f877600fc7a6d306856e508152508160800151600c81518110610901576109016134e9565b602002602001018190525060405180604001604052807f1a2d9cf52c76af059b9d6d66987049f5e1c2198b896245ca2e2ddfd03d9cff1981526020017f120021c624c0cc6cce9aca7a320507078ecabee74a939f2c17f2eef22d8a990d8152508160800151600d81518110610978576109786134e9565b602002602001018190525060405180604001604052807f1f30c9e2de27f8aa331516d515f09c6b688a7de8983cc1d91250ab60334683f281526020017f02a2fd371a380021290046118cc29aa834ea56ff4807bfac4fcc6e7543ea5be98152508160800151600e815181106109ef576109ef6134e9565b602002602001018190525060405180604001604052807f2f644f77f0eba7f72ee63c05f52b091b57e29a2af114ac0db90bd47dd290d26181526020017f066e4c7da49f2e9e862262109fa6f66993842b7068e29aa34c4f7ef7e09eca8a8152508160800151600f81518110610a6657610a666134e9565b602002602001018190525060405180604001604052807f0475d8078e505c7c22ad15f8d0e3369945003247307e61847f0e776b2afb978881526020017f060da35373299913a6a330355d3571967fa2a665868565bd0190c30b6c48d5718152508160800151601081518110610add57610add6134e9565b602002602001018190525060405180604001604052807f2982c069ba3d75d9e39e998ab590e2bdf1aa02baa98efb017ed4f8ac1339f07881526020017f1554dfbc3745cfbe61659e137b7feba0290e6af3b95a8af6544e6228532ab6848152508160800151601181518110610b5457610b546134e9565b602002602001018190525060405180604001604052807f0cd05b06b8eadf4b7e192214d766a2ac54b648a4c1015a06839fd0d963b06e4081526020017f0820614e8222ea68f661718725e39d2f387f2fda4fcddee00b66e964b0d6c42b8152508160800151601281518110610bcb57610bcb6134e9565b602002602001018190525060405180604001604052807f07b390fbddbc8198458c6259e9e6b4d5a9ad4a684803f3e7593284e3c9b528ef81526020017f103ec0b99ce920996d33da2992bb0168f1f25f5636a7e1308326d676d7d60ef08152508160800151601381518110610c4257610c426134e9565b602002602001018190525060405180604001604052807f05056d7f26569bfd108db95ef7bfc47c4a39eb0f1172b3c43e399aaf0f6ab23181526020017f12440ff70c4e29a9076cb4282913509e10c05d9d0a43e1ebc125cb3f78cf0f278152508160800151601481518110610cb957610cb96134e9565b602002602001018190525060405180604001604052807f288440177c77aea170a77078fb1c148d48c465829e8e0e49c536f0c4d5ef1bc581526020017f2a483d9fa4850028a4e34c6855ae31f710b65c8d3a92375b2a915f8b33a875468152508160800151601581518110610d3057610d306134e9565b602002602001018190525060405180604001604052807f0dd88fdb5dea1ec04c9c622137fcba41b42d5ef16297f523ac54e958f96181c281526020017f12ba0da4b0a6d743f8762f99129d66b6238cce8c9bef6101971202aaee6d1fc28152508160800151601681518110610da757610da76134e9565b602002602001018190525060405180604001604052807f2639d5673250376a1adb09709222a24b97035ebab0a01cc9a71111af7a76c48981526020017f1a1e3825e438a37de16e847a713b5bce4249386b3c3919d54fb5a2784d4111898152508160800151601781518110610e1e57610e1e6134e9565b602002602001018190525060405180604001604052807f12bba6082764578a9e1ab4a37e9a36e09295b22edeaf95235a3b88472db800bb81526020017f0ef34648fb611d41478940cc9d444dbbfd9472f1fb47d8dd28c4cb05f472a4d38152508160800151601881518110610e9557610e956134e9565b602002602001018190525060405180604001604052807f221969a41a06997609e3a068f96d7aa0203f36b1cda767fe8a9c5fdf159d7f6f81526020017f01d131903fcfc27cf1418af8094b4ce8e16a8d0b859829bdcbae936bd2d623848152508160800151601981518110610f0c57610f0c6134e9565b602002602001018190525060405180604001604052807f111106950ef60bbfebd27635c0fa0c6250238417e9aba29c7765dbe04861b70781526020017f104bdc3e89bb3c0a9ee2cd3fc99114f6c804165264352e826c61d97e5443d1338152508160800151601a81518110610f8357610f836134e9565b602002602001018190525060405180604001604052807f193f534149b1663724fe2069ccf78db93546a996f4a54d58710760d9e3a95bd181526020017f2f930d51257a393b0441bc6012330f374967808c61327caf1908d9dee7fd079a8152508160800151601b81518110610ffa57610ffa6134e9565b602002602001018190525060405180604001604052807f05cdd542b9021c64a8382697aec8369d22131942f52280b14ac933629fdc2f5681526020017f2372967005d0ddccb9cb132ace29f87eca5c959e163652e10b278f6d7546a4c58152508160800151601c81518110611071576110716134e9565b602002602001018190525060405180604001604052807e851dfab9c9f647c6a9fe94fe6b8ae42cfc824129f3992e6e10697c0500db8481526020017f26a67a4157bc16a4ee7c36e0145b6720e84d4a7e3693e5e13f62f3eb58e5138e8152508160800151601d815181106110e7576110e76134e9565b602002602001018190525060405180604001604052807f07179ec04c8c9cb039c6f582ef3720818e9c2090e61bb330261d56e7e9af14b281526020017f04b77a68bc19e16ba31f227d234f01c898a08d3dce546d2ee8e172fb51d3e5aa8152508160800151601e8151811061115e5761115e6134e9565b602002602001018190525060405180604001604052807f0f0fe7906d0d680d69c3064b9a6c3defd6713e5a4ebd4512eaee3f5d10d5978481526020017f0740af1821f10dbecaf94fd26a754b3cd79282e636a4a4ee32a3be35db9184e88152508160800151601f815181106111d5576111d56134e9565b602002602001018190525060405180604001604052807f2c2571fd051fb9dd09e871ae2637d6ac2f85dbb6c897cc3f223a808beb078d2181526020017f1e0612b9ad0fe8199cea3aa207b14a9444297d920440aa3b1d54f277553bdc45815250816080015160208151811061124c5761124c6134e9565b602002602001018190525060405180604001604052807f2f2ffaff8159c5625fabad03323bb9003bb3f09a323e00ea4ceb8c842caaf02a81526020017f0c48335eaf0f6f7c49b7f1ddebd9d117028641f286e150387382f022273986c381525081608001516021815181106112c3576112c36134e9565b602002602001018190525060405180604001604052807f0b714b5295f99d377e8dd3f7108e698d29d6be4eaafac7b20eebdd11f933584c81526020017f2b74a28b567b5d23066f6abdbfcb0c4e12cbcfcc89963468ff7e840884e97a69815250816080015160228151811061133a5761133a6134e9565b602002602001018190525060405180604001604052807f23608ac7588055c6acfbae60b08d4e07baf5ee4aeb89ede899b130e8bade08ff81526020017f0b1f09d3998b7405b1dab88a5c8a2dab533d6be6a84e3f4d7d8d35d36dc5bc4a81525081608001516023815181106113b1576113b16134e9565b602002602001018190525060405180604001604052807f1fa73594da5637a452a0def9f06d33507dd735e985115f653e84b2f4526cdb7a81526020017f2ac27158e75f0ebf646292acfaba09c14b85b9b36c4e3c48a79eb92f410bb5fa8152508160800151602481518110611428576114286134e9565b602002602001018190525060405180604001604052807f08eb98741186e983243580c697a3d063fac8fab58acd07f47c2922448f7ee14881526020017f06618249016db89b2967b3c4b62591969ed0f58519ed5244297ca219c8516bdb815250816080015160258151811061149f5761149f6134e9565b602002602001018190525060405180604001604052807f2c003469df0822863d4065f893ccb0735188a44cd6e2c81e81df5fce2974f94e81526020017e38238fe1c8b63b9ba9269c382b1a7d49342ec53862aa88946caeccf0c85f368152508160800151602681518110611515576115156134e9565b602002602001018190525060405180604001604052807f1787bea3eb00cca3cba528a9c938b13e9cf892bdb8a92a225dcb6013e62824aa81526020017f1908084dd7f25834c07718b575a896712eb540e61cb4cf0afcacdaa963b08150815250816080015160278151811061158c5761158c6134e9565b602002602001018190525060405180604001604052807f1e0f3dd597bd66bd9972e74b9acff8bc6cafc2e3d6c48dcfb5a5622f18b5991481526020017f221a0d2b222fd38a3e7caa03ef4bb3572cdbe815c2c3636db762a235de613be08152508160800151602881518110611603576116036134e9565b602002602001018190525060405180604001604052807f0e2af620460abfd4bde200393c8747717b541e4971486e2ecfeef4c2ff66a90481526020017f2deeef0bb74cb6b4958e7ac147f04b8e74f72460f9dae2d99f36326e558a1988815250816080015160298151811061167a5761167a6134e9565b602002602001018190525060405180604001604052807f20dba8d440a2571b9464be92e903635ca548910de157fbc332a9a07b9d0532e581526020017f2e37797036d523f2a464f60dab05f5b3afbcbcc85e9c033e74fe84f657ea46d08152508160800151602a815181106116f1576116f16134e9565b602002602001018190525060405180604001604052807f1a1b38ce63cedc8552b66e97aa2b673bab7e11d79f2c62d6e86345a3e70c384481526020017f14306f8224890be09fd425209db1a62efb4d2874ad4cedbced186a7fbbc487b38152508160800151602b81518110611768576117686134e9565b602002602001018190525060405180604001604052807f29496b37e3b4798e1652df5112ee14aec59259ea479a96b7219ed02fa4c6d7c881526020017f0cb8c4c4ed1341cbf98b3325e253cd76ea1166f3fdce9b55b5df7f89969e66cb8152508160800151602c815181106117df576117df6134e9565b602002602001018190525060405180604001604052807f09c769ab6ddb56332591d0a4bf9f4277f1a709764fcfb25a7431a08304f4cf5181526020017f20c7f2d04c4644e7775a7021b8a178006749a2d4ea09516ca2306bc1f87563528152508160800151602d81518110611856576118566134e9565b602002602001018190525060405180604001604052807f0f99644e3d86f011236e1e64601dc374859067e69793031531c25ac0568edf7781526020017f219e3e757f0a53e8b49a20b46a8c29102b019bb28d3d0c0bbee2b6991903eb288152508160800151602e815181106118cd576118cd6134e9565b602002602001018190525060405180604001604052807f2f0e8818864da7828f5c98e07a822c95eb399644ba6c6cc3567d0d06bd627ec581526020017f2e4c859c3fd3805bb5afe867908353ce1db2f08087bc7f3a27c3f067744e872b8152508160800151602f81518110611944576119446134e9565b602002602001018190525060405180604001604052807f0fe43f09c969343cb861e3d976f20678d29343be6132358764073ae392263ac081526020017f21e54232e8b4d58951d12f372c34ffca8e3a41bc83ce27c320a0ea9beb8943e881525081608001516030815181106119bb576119bb6134e9565b602002602001018190525060405180604001604052807f188412588ba50f0940f444d32171b51bd76a38013b2fe7f4df968d462b35474181526020017f2efaedde4972d8654bee007e4b1ff5ac7c4783141039aaf13d8dc879d7a164478152508160800151603181518110611a3257611a326134e9565b602002602001018190525060405180604001604052807f17d8d68009382cd3b97827c3b016272ae76d36dcabdf9e7f5bfad626d98a735481526020017f09d2e2e227ad0343ffa58501b2a14a12838dc6fe98c0bff18496de85a9c5f3388152508160800151603281518110611aa957611aa96134e9565b602002602001018190525060405180604001604052807f0f70cbe0d2f376f02b35987c73d240a6946f128361cbd827a0d798398a6bd45f81526020017f032610a14fbac1b754b0bc180345b00275045bbc3cda1b5219ea1ac4b8a92ab58152508160800151603381518110611b2057611b206134e9565b602002602001018190525060405180604001604052807f081235aa37bc3cd492317a0d39761799183f9d0cf49849f983eb169d17e8563481526020017f1a23396a39dc5b417f77098835185ef2f03bfc21f23f54a328394c4e10313ad48152508160800151603481518110611b9757611b976134e9565b602002602001018190525060405180604001604052807f1aa9df3198a05c8e53d900305f243636fb9e009ddb9aca6b3bf09c153820d91c81526020017f266de7a603fd2c058b39a8bc215edeb3e220b68d4545f1b3f1c864ff852e76338152508160800151603581518110611c0e57611c0e6134e9565b602002602001018190525060405180604001604052807f13adfdae323833f2bf540c1cdcbbc5a30e2bd259f775bbd9a43e5ba92102339881526020017f1b52e31fcb0b80ab0862b357e654a8df6b0425580184c7b932e8d163ebd6d86e8152508160800151603681518110611c8557611c856134e9565b602002602001018190525060405180604001604052807e2c9403412a0902487609d87e5d87dc7992e3171bc75af3e21cb5178f152fba81526020017f2c1d0b7100601c259fac36d003b046a4e40fa0a068acbabfc8f127887285daaf8152508160800151603781518110611cfb57611cfb6134e9565b602002602001018190525060405180604001604052807f0cf5a98448613fa7d48cd8b214f557bdfdc85ce49e1a17a2b7ffe7cebd3022bf81526020017f014ad7d2af24060ad4e86e3200e3d8b83984c6aa48a2598a15ce3d9dbfb050248152508160800151603881518110611d7257611d726134e9565b602002602001018190525060405180604001604052807f126c062f388abc29de36fac58b0d32303d51f82d71f3999809537a80ded3cf6e81526020017f03061008dc306266091fa1f0bc3c8782f9ebe81f05430f239ca628318cc0aad88152508160800151603981518110611de957611de96134e9565b602002602001018190525060405180604001604052807f1a43d29d5e9e0df4f564f27da4060f16605377ee23da905c089163fc9a60a26481526020017f296e9e83ed5d07a8789c7585e9fd6999ed14f5d123ea29e72b501392c245e36e8152508160800151603a81518110611e6057611e606134e9565b602002602001018190525060405180604001604052807f2b9b5b4b03b081c38bca674757d9d76ed248b3558013f5b571f01da12cbf63db81526020017f0f0613de7e8e1073365e780847fba41aa92658bb2cecd470927a01c0a9b97afe8152508160800151603b81518110611ed757611ed76134e9565b602002602001018190525060405180604001604052807f09cbcc9d71b580868ef80a25af14fcc600c1fb3acf91537852fa3871b469b66581526020017f241d1b1fb1f8dd1362b376e79c24d44905036321df8177fc0cada52ec640bfa68152508160800151603c81518110611f4e57611f4e6134e9565b602002602001018190525060405180604001604052807f2e71a25019af359fc3b37052baf5497d9464accd0f4635321b3f823089e8a43581526020017f19ce5d8d6815e1d291c233b2111e3b526bc890e9d1c2cc5cacf33846345fe0168152508160800151603d81518110611fc557611fc56134e9565b602002602001018190525060405180604001604052807f0efa67b37bc3a17b851ca78af39b6ae8602d39c4cc19511f2b9c522b45e2d54781526020017f28ef26c43e6b796d060ce695e2c889fd787befb0debe938d29af754fa2cb33cc8152508160800151603e8151811061203c5761203c6134e9565b602002602001018190525060405180604001604052807f2f3615e692a532a6928e5a571779fded7fd2ea51f72c31bfba5636e7fb96f47d81526020017f1c95439338e4a89882640a68106cef1ecba3555affe0b5a058fee8bf7f3095288152508160800151603f815181106120b3576120b36134e9565b602002602001018190525060405180604001604052807f23d3a7a3fe2895eac6f079c5a7f5707dc84eadb3aca729ade4c95db9c79c9dfd81526020017f092e5d76a9b5e6e20c8625592a8fefbd52551b223fdae026372e46e17fc31f67815250816080015160408151811061212a5761212a6134e9565b602002602001018190525060405180604001604052807f0daed13644bae7e5382fad2d9ed95f0559c82a3b9c7930f2642c920afa56f9fa81526020017f1233cae794a8bb8ddbb0ec5d79e0d4850cc76a3a20be391d6103ad67b0af7fdd81525081608001516041815181106121a1576121a16134e9565b602002602001018190525060405180604001604052807f2b6415633525f06b7c83b3c4de7fcfda663d94fdd79b8be1cb67a346148f30ed81526020017f0fb8cb0616c0ad435f09b835f517e79a6170a8448eed927f3d2dfb108ff971738152508160800151604281518110612218576122186134e9565b602002602001018190525060405180604001604052807f234ed5f57e111ac285ee6a0cad8cbaced2ea9ba8247eb2f7e0e1035688a1317b81526020017f0ae8bfbf7816309d5a3603148ceff924a3b32f16899b8c750a92e4452c1c6551815250816080015160438151811061228f5761228f6134e9565b602002602001018190525060405180604001604052807f0fd9855e4ff0affe1b8200bf781ddcc1feb7121d6166d79e1e2e08d95d52bc2b81526020017f104a9210b0661cdeafafa8f190db861ce4c96d948ddb4fbfbdf9240663e49c638152508160800151604481518110612306576123066134e9565b602002602001018190525060405180604001604052807f2339b04f44ced52848611272507f94527e6721944f11465eb533a10eb9502ac081526020017f126a2df2fc4955f6d495feae2062c4f03122d289996f0cbebb15030766d2a304815250816080015160458151811061237d5761237d6134e9565b602002602001018190525060405180604001604052807f0d172b0c63986bf87560ec85ca70875d958e11a8d58c53789651ea9c9c4c2ae581526020017f0fb8986702ddc91d0030a13053d0ac4720ea6c0b06e87e484ed37beb4cac5a6781525081608001516046815181106123f4576123f46134e9565b602002602001018190525060405180604001604052807f0a2c0aadbe61dddac0e68d48a779b1899a5d6af8e0503040fc04854cefc32bf181526020017f22fd3422d8174163ebdce919994ae25f0c05b764075361ef651c4fe25299368e815250816080015160478151811061246b5761246b6134e9565b602002602001018190525060405180604001604052807f1ce48d1a5ec7d57d3a756ee8f674a32131f5d814856a007147afe05253911fda81526020017f207b12fd29bedcc3ee22ca015b3ad04c7337df35b164f8846041c4ca802c088a81525081608001516048815181106124e2576124e26134e9565b602002602001018190525060405180604001604052807f14c66507c2c39b53dbf0f89e4f79dae325120479721d390c61333f8f663c7d8d81526020017f0fdc718f7194d91a70f96183c647f4d892555d55f427fb66fb873fd7713dcf608152508160800151604981518110612559576125596134e9565b602002602001018190525060405180604001604052807f19830236bc79f6304a943b2ad645212a4b533a3b7961348b21d6e39957eddcf781526020017f2bbf4a475fba20e7cede7b8a46c7e43a4b0f0cec43f0d2a7421a74fa0aa1e20a8152508160800151604a815181106125d0576125d06134e9565b602002602001018190525060405180604001604052807f215789cc06743295929b75118a0329bf00ae778b0b5c637a2d555c704fd683c781526020017f2be768c6f48a54b340efdc8bd2df39346ffabdcb33ee0114b935a1276254d2e38152508160800151604b81518110612647576126476134e9565b602002602001018190525060405180604001604052807f07ecc7352e546c3462f142af3a72ed1f085d56b5b17213c690ccd76741d787aa81526020017f0169ce97d5f4e285eb2f7385f413f1711e2fd792deabafd0ee706bca8631d1078152508160800151604c815181106126be576126be6134e9565b602002602001018190525060405180604001604052807f097291982a02259db74ca14d72cf4183be2060937763e73e7b558fe3dfbdd3d881526020017f2ad2a5b32cbdd883ceb744222623c13df7f4be7b1b9586ab612744946817a5db8152508160800151604d81518110612735576127356134e9565b602002602001018190525060405180604001604052807e9a3abce542292007489c9c6916f68e7630fb63a3f7d122f27525bc22ac692181526020017f279f565a90d510845425d50196ddc567810d7be1b26bda2a65b031224ebfe02b8152508160800151604e815181106127ab576127ab6134e9565b602002602001018190525060405180604001604052807f3005e9dfead2a764ad0adc5c3f637491055181b95f4b660000dc2b8f8a09096081526020017f21eb141ad10ef6db7626990a439012a9e7543f8d7dcf7a7db7d9e5c47d1db5238152508160800151604f81518110612822576128226134e9565b602002602001018190525060405180604001604052807f30206e9f0f65f3b7d9d66035077e1f21473178c48362f4096377b173e0249d8f81526020017f2b35c77b4ded1190b1342f13cf3eec40e49d6098d1a8a5ff1e7b063f2b64d6748152508160800151605081518110612899576128996134e9565b602002602001018190525060405180604001604052807f187eb0e6b39a086f196436d75a1fd4e724632e5b8d792b2f246a94d7d053777f81526020017e7739125e2096a07c567af416ea06ac7771e2c915ccd825c40e635ea61b5f95815250816080015160518151811061290f5761290f6134e9565b602002602001018190525060405180604001604052807f242ac470736bbd4a8ae3b4a097c3eaeba22e4c806c7d4d1a9338f9a87ff8b92981526020017f06a3ab31e4a883de9e344230bb12eecae7d48a1020458dee0a87d274f4a3cbf98152508160800151605281518110612986576129866134e9565b602002602001018190525060405180604001604052807f2ced44802a0c54db6d65ef54593ca79909ecf2d839e0e1be5f85fbcff03f92e681526020017f29f72e275ae0fc12ff64a1815937262d2b8a5261490a2a0bf4b40a79680397c481525081608001516053815181106129fd576129fd6134e9565b602002602001018190525060405180604001604052807f2eaf4454a414a7fed2d5b42738790988d9f9e53eb0f84859ff10aff31d088db781526020017f0fb02f1035f8cb4242e0b35016e422a4ced3b9eb646dff6da8c3d7c331d58c888152508160800151605481518110612a7457612a746134e9565b602002602001018190525060405180604001604052807f245c282b5f0f2499726f1a6996fcdb2cb2dedca2c8e7e9f09498977b1a3f7e2081526020017f289ef1a8da3b40e712e9060af32f0dacb8512c079dae85d9aa180fa2622a51758152508160800151605581518110612aeb57612aeb6134e9565b602002602001018190525060405180604001604052807f0504546223ce10c4e3c72c0553ff1ebc5613c1e12c0e3ae8bf605d05e4dbd47581526020017f1ac607aacb23a6a6eb1262aeb8917d2d01e3d94dff9d2c2c1e2ed35152c5f9108152508160800151605681518110612b6257612b626134e9565b602002602001018190525060405180604001604052807f278afc60b8143e357b5f53abbfafef6c23af51c23481ea7e0119e193c316f96b81526020017f13857b1d0c442ff7e3dcb8b7ac3ff68d93b302119231e6f5cad42c312d0f5be18152508160800151605781518110612bd957612bd96134e9565b602002602001018190525060405180604001604052807f169792c25e613acf9d29d4ab99a1eec30a76deee41e1c89ca7efa5ab710a1dc781526020017f1d9acdbe8351adf24c196963e2ae61e9316738b42982d5bc06bf1f923799f4958152508160800151605881518110612c5057612c506134e9565b602002602001018190525060405180604001604052807f2aa39b80c092ba5a0583dd6dc87b0635bbd52572b1a8a9cf9bb31d3cdd638cb681526020017f27a8e3def1fa03d059049b1d16256676b3a8130f676434fe5f8c0319f0a9dc078152508160800151605981518110612cc757612cc76134e9565b602002602001018190525060405180604001604052807f07d36f4e0a1e91fe37fd99a061482afc836963c16afc7d70c74a0b7ce954249981526020017f29dcf7d4fabf45ad282bd3a259362f49a0a3cc5e5a24e9a8ae8ddc211020147d8152508160800151605a81518110612d3e57612d3e6134e9565b602002602001018190525060405180604001604052807f074f7453e2218154e02e673655b32111e48dde843a543918dc4f72988cf1b53481526020017f01035f9163d296de8c06815d043470964e945901b6d6e6c56595aefb0d737a038152508160800151605b81518110612db557612db56134e9565b602002602001018190525060405180604001604052807f28f4dd6a0a15281fab9661db1c186c57ca8c24639290a2d04230ca90277e81b781526020017f2e8f766f24fc744264a0e5d88f088578e9d79727043fa5c9a0e077997067405e8152508160800151605c81518110612e2c57612e2c6134e9565b602002602001018190525060405180604001604052807f01aa45091e8aad459f06168e442a3602f32c38ea4ac45a5d188be6786bfad72a81526020017f27c5da2f68a4fcbe7e501b261eedf3703826bbd9556bb0cc8f9e3b6d58ed15828152508160800151605d81518110612ea357612ea36134e9565b602002602001018190525060405180604001604052807f2452f57bf26ae0d48736981c7fea1f733befa8565018542cc7bcffee6b51c1dc81526020017f29d107557ac10081abf21ba1a8f4e6ad982450de8421db0143412c13739632b18152508160800151605e81518110612f1a57612f1a6134e9565b602002602001018190525060405180604001604052807f06d0cde333cbb7388f42763cd0c36e935a87a716c2816d02b6da4864a1f426d981526020017f0ff837971c4d44f5e84a659017f2612096da4bbacd30f8518045731d2e1896698152508160800151605f81518110612f9157612f916134e9565b602002602001018190525060405180604001604052807f1adf15e1b49a0ddcbf41b03c7a556a329cba1d2ab322cde2869fff43efcc664281526020017f0bfd349671e7aa12b516ab379a419cfea7b8552ad39d4d6111a5d7a908e3d5688152508160800151606081518110613008576130086134e9565b602002602001018190525060405180604001604052807f1375935f6a5a7a1dcb077fe3a5717a7c85f45af4cefec6b1c3853ed0ec030f2081526020017f02d939ccdacf79e1ef65e374b0affc0198131c3de94f7ea21cf0174fedf3b6f2815250816080015160618151811061307f5761307f6134e9565b602002602001018190525060405180604001604052807f302672c51e683a43f09f37b79950d6cb854bf8c6d81cf212aefbbc6d2672b78281526020017f1ed19008679aebc70c0e6009e072d9fca99b32b38b5c3c16bbb20853cf049ad781525081608001516062815181106130f6576130f66134e9565b602002602001018190525060405180604001604052807f050d207c6c28eb8024d7d58766ccce878a0d16ee7a64b363b0edb03c1a44fbf981526020017f2230766835b4538650c363872840af7845565f04eba34d34f02e12d854792f75815250816080015160638151811061316d5761316d6134e9565b602002602001018190525060405180604001604052807f2ec11fa5429623b92fa1d9e2ab74533fa9ae3949045389a8db5c4f5309ba498d81526020017f274ab40b4cebf84ce55d4e230f574919f015cbf3cd39bbbf05265144e0f4046881525081608001516064815181106131e4576131e46134e9565b602002602001018190525060405180604001604052807f2d11addd6626ff25280eabf3886ea96b8b3a4aa6382e21786100d66f19c36d4081526020017f157ebef2002a04aadd143eb5aa01b5783e61c31534a90ae6b7d650f850e4b93c815250816080015160658151811061325b5761325b6134e9565b602002602001018190525060405180604001604052807f2cce51dbb40444c66266a10066f6d8458cbfbfa1e7a38f5b1423e86c5312c6ad81526020017f1ba12f6ef68afbea2253946b22011b825d554a5bf00c55b4436fd165d4cffcce81525081608001516066815181106132d2576132d26134e9565b602002602001018190525060405180604001604052807f2817626f06bce33fef10d97e0851fc23e00825db63ebd2ed467f4311c6f7e2b981526020017f192a7971f85504876f58b9c017dbb403b92b5376108613a069940831034ad5f48152508160800151606781518110613349576133496134e9565b602002602001018190525090565b6040805160e08101909152600060a0820181815260c08301919091528152602081016133816133a8565b815260200161338e6133a8565b815260200161339b6133a8565b8152602001606081525090565b60405180604001604052806133bb6133cd565b81526020016133c86133cd565b905290565b60405180604001604052806002906020820280368337509192915050565b8060005b600281101561340e5781518452602093840193909101906001016133ef565b50505050565b61341f8282516133eb565b602081015161343160408401826133eb565b505050565b6020808252825180518383015281015160408301526000906102008301818501516134646060860182613414565b5060408086015161347860e0870182613414565b50606086015161348c610160870182613414565b5060808601516101e0868101528051928390528301916000906102208701905b808310156134dd576134c982865180518252602090810151910152565b9385019360019290920191908301906134ac565b50979650505050505050565b634e487b7160e01b600052603260045260246000fdfea164736f6c6343000811000a",
  "devdoc": {
    "kind": "dev",
    "methods": {},
    "version": 1
  },
  "userdoc": {
    "kind": "user",
    "methods": {},
    "version": 1
  },
  "storageLayout": {
    "storage": [],
    "types": null
  }
}