{
  "address": "0x82470574B7bEa38b4EdA29C13E58C000738e4B30",
  "abi": [
    {
      "inputs": [],
      "name": "verifyingKey",
      "outputs": [
        {
          "components": [
            {
              "components": [
                {
                  "internalType": "uint256",
                  "name": "X",
                  "type": "uint256"
                },
                {
                  "internalType": "uint256",
                  "name": "Y",
                  "type": "uint256"
                }
              ],
              "internalType": "struct encryptPairing.G1Point",
              "name": "alfa1",
              "type": "tuple"
            },
            {
              "components": [
                {
                  "internalType": "uint256[2]",
                  "name": "X",
                  "type": "uint256[2]"
                },
                {
                  "internalType": "uint256[2]",
                  "name": "Y",
                  "type": "uint256[2]"
                }
              ],
              "internalType": "struct encryptPairing.G2Point",
              "name": "beta2",
              "type": "tuple"
            },
            {
              "components": [
                {
                  "internalType": "uint256[2]",
                  "name": "X",
                  "type": "uint256[2]"
                },
                {
                  "internalType": "uint256[2]",
                  "name": "Y",
                  "type": "uint256[2]"
                }
              ],
              "internalType": "struct encryptPairing.G2Point",
              "name": "gamma2",
              "type": "tuple"
            },
            {
              "components": [
                {
                  "internalType": "uint256[2]",
                  "name": "X",
                  "type": "uint256[2]"
                },
                {
                  "internalType": "uint256[2]",
                  "name": "Y",
                  "type": "uint256[2]"
                }
              ],
              "internalType": "struct encryptPairing.G2Point",
              "name": "delta2",
              "type": "tuple"
            },
            {
              "components": [
                {
                  "internalType": "uint256",
                  "name": "X",
                  "type": "uint256"
                },
                {
                  "internalType": "uint256",
                  "name": "Y",
                  "type": "uint256"
                }
              ],
              "internalType": "struct encryptPairing.G1Point[]",
              "name": "IC",
              "type": "tuple[]"
            }
          ],
          "internalType": "struct VerifyingKey",
          "name": "vk",
          "type": "tuple"
        }
      ],
      "stateMutability": "pure",
      "type": "function"
    }
  ],
  "transactionHash": "0x693a55fa589f09e75a8318ad9293326ee76e0bb314f384f50acaba3a791e057d",
  "args": [],
  "numDeployments": 1,
  "solcInputHash": "3b9acf00d9b11bb0c29b8fc9a6c63fb6",
  "bytecode": "0x61339e61003a600b82828239805160001a60731461002d57634e487b7160e01b600052600060045260246000fd5b30600052607381538281f3fe73000000000000000000000000000000000000000030146080604052600436106100355760003560e01c80637950c5f81461003a575b600080fd5b610042610058565b60405161004f91906132c8565b60405180910390f35b6100606131e9565b6040805160d2808252611a60820190925290816020015b604080518082019091526000808252602082015281526020019060019003908161007757505060808201908152604080518082019091527f2f24adefbc32fb8b1d48246c2b7163db2d55cffa9cc1768b2b87cbab425b8e1e81527f2d2b4406aa24e53b9e0b8dcc34812282f109b04327e0dcde4e21d51ca738db28602082015290518051606890811061010c5761010c61337b565b602002602001018190525060405180604001604052807f0e5d944afc1fb459aef7364ecfd390c36bfed8140fb4056992f4765160c891e081526020017f127c647ff099dad655b06a4d9dea5625d631b917d7914f05e9834dc3555fd72881525081608001516069815181106101835761018361337b565b602002602001018190525060405180604001604052807f0646ffde56f8d843da1c5a7ec2b02332884174b1133afb3da94c7bcc7ee6cb1181526020017f12ec9964200e3351c6f47077a8cac1baa6ec7724b3df56a9d9c6f88fce38e6668152508160800151606a815181106101fa576101fa61337b565b602002602001018190525060405180604001604052807f080aaf0f43845bd1bc5545aa6b5e1e01be4f4323939045d421abe18e72cf6c4081526020017f1ebe2c8be904a89b4cc43956a37c147a2cdb8afcaeda9f2d6eda05b1044804758152508160800151606b815181106102715761027161337b565b602002602001018190525060405180604001604052807f3001fe6badba12dfcfaf60e2abde64cd8bc164129818729946cd239605a91b6c81526020017f2b61c08975d423fb7f877eb81bc827ab77b4b5deef9298ccf70bf13b14f156038152508160800151606c815181106102e8576102e861337b565b602002602001018190525060405180604001604052807f0a251073662c226807038902d67c09d083326366bfd72a1d1432e8322ddb4fff81526020017f1fb2572316443d8196ceea7596657b6e4c03626d3b36775fcdb6a793980f019a8152508160800151606d8151811061035f5761035f61337b565b602002602001018190525060405180604001604052807f020d3ea6d004299418ff7cbdd72c717913549a1c0b91d123c08f8359e96ec0c581526020017f122ac4642dfffbf02b1986b41638e36d0877b5706fca0501da43827eba28a0708152508160800151606e815181106103d6576103d661337b565b602002602001018190525060405180604001604052807f1da50a3508b8a35d38139f202dbdc2ce46cdab15cb36b41fbc6e2052b3b1f0f381526020017f2ccc3dd4f0a42cd60f1da232fb86fad9cd9e75f0402a518463a35cfd591e2b828152508160800151606f8151811061044d5761044d61337b565b602002602001018190525060405180604001604052807f1b3ab3ae2c28b67700ef5d22d98951ae69c2410111483be80dd57fd83e7c754c81526020017f1c175101a8dc0ba2997b808cfcf478ba4f46fb7a7dcc1fe12459e20f52b6b4d981525081608001516070815181106104c4576104c461337b565b602002602001018190525060405180604001604052807f0ea55f307eb810eed90c118570ebeedb059ca8f5b2d6295f3e12fa76d28cf49d81526020017f273bc241692b638e98ebfaa05b20aa524863fe6d164f8d9b79e92194f0a6b19c815250816080015160718151811061053b5761053b61337b565b602002602001018190525060405180604001604052807f2d02d55133f84f08202677babfc716cc6b09b9a688eb4b15be052bfe3eaa67ed81526020017f0ed8cf9fee542ed02b3d5a596cd45203ded75f8ff028c7d6bd5d8b380984c59581525081608001516072815181106105b2576105b261337b565b602002602001018190525060405180604001604052807f19ae078a16854b3436a0dd844421dbad0fa6d9d03c736ce673d4adc3ca2bc4f481526020017f2e31873366d2160bbf8ca9eec2706b7e46ccc3c65d918d8db01a30119531764281525081608001516073815181106106295761062961337b565b602002602001018190525060405180604001604052807f08952a2c28569d5d8f0029881435a74b3dfda21b0e1338dd77651abaf4ecddd881526020017f1a715cedf0c45f1c794292f63647fb9eb2983ab174c476cd402dec1268ad1a6681525081608001516074815181106106a0576106a061337b565b602002602001018190525060405180604001604052807f12b2bfae880b596a363524aca60ae74f8e8fb9cc5a3a361f321de8f6c39245b581526020017f0c617e3ee00ae24bf4cb275de113d3460e3adfa4cf568bd67e9bd408f295db0581525081608001516075815181106107175761071761337b565b602002602001018190525060405180604001604052807f2e5146890853b1f458e23f3a1de92949da4e2f1a6b27335848f417a4169b733581526020017f2182a3ad34969aca0cd8f70e0baf4087d0597a0a0cba7d69781e23a25b7e8a3c815250816080015160768151811061078e5761078e61337b565b602002602001018190525060405180604001604052807f03450a024e50c0c771782f9a39969b894e10fa4c5bdc5dc47bef4f587917442c81526020017f1e86daaca9de642d5c1ddcd171b6c0f6e74b3fe4043de044efd0188b986b240f81525081608001516077815181106108055761080561337b565b602002602001018190525060405180604001604052807f0324d401d86e3fea827839a347128a5fc60582adf38808247ffb1abd514930d181526020017f03acb993e48be688d0b7e6af2a39f86078dd363b9a68ceecfaae9894900b1e29815250816080015160788151811061087c5761087c61337b565b602002602001018190525060405180604001604052807f285b6a54cf49dd20c0f4e986ccfe291dd93155ccd68b28ab19504f935822789581526020017f0c7a2414a363c32bb2cdb99cbd1dda251705ba2d3ab2aab0f7c6c4c70a8f467581525081608001516079815181106108f3576108f361337b565b602002602001018190525060405180604001604052807f0ee75f10ccfdc236084045dd609501e1887913d28fad07f1307ee7eb5686542181526020017f2a21c0e4a5ce0b9c1fa37525a8334fce85fb9819396154d7ae41bc37dcd3b8ba8152508160800151607a8151811061096a5761096a61337b565b602002602001018190525060405180604001604052807f2bface7c94983e17bd489edcf204aa766af8eb4fa6ef00bb93761ce7048fd6bb81526020017f09e190f5dcb1f9ff83de72e85bca0dbfb55268fd81294d600c38192be06bae118152508160800151607b815181106109e1576109e161337b565b602002602001018190525060405180604001604052807f2f2d3feb731293a3c3aa9dbe6f13e9b793643cdae991c29066f9c5508904778981526020017f023e054c59114a2b4f112ae39a2a98da02081aa332c42c343e2eeeb38d6eb8fa8152508160800151607c81518110610a5857610a5861337b565b602002602001018190525060405180604001604052807f2cf20a9c259e363007aa1e82c3c00fde0ce4fa3ca9e66c84a617337ada1ed76681526020017f0e423737e2d717337f73a6195995e4433cc653aaf3ef95c772bc29c0585b4bf28152508160800151607d81518110610acf57610acf61337b565b602002602001018190525060405180604001604052807f133deef1c2d929d82fdc5e245326a0e24782f6ecee42ed9523b490b120aac95d81526020017f12c07c679e991c59ad1f09ce2af6de86abed4c6838f3d122569fc693209007e88152508160800151607e81518110610b4657610b4661337b565b602002602001018190525060405180604001604052807f05674a8937c5b9f3a87856248862507fa45f36b17c6e2ba18408f4973c4a380e81526020017f1f3c30ef8637f11d7eb4b451747a6c0265de23e854021bcafdb2c88794fe3bba8152508160800151607f81518110610bbd57610bbd61337b565b602002602001018190525060405180604001604052807f129b1388ed8283a08e2234e42a435739eb471d371e0dcba53e55d5541690b80581526020017f27024aa758ac2b92797af85812bbbfcda00fb34f0bad4694e76bb4b57492c7908152508160800151608081518110610c3457610c3461337b565b602002602001018190525060405180604001604052807f078ff5ab50ade5c535d215f0e94685679d271b9a46381841365eb94c37bef5ad81526020017f217048c873934d2a0c4578c4c89cf09b6565b307414735a3572405761c9127e48152508160800151608181518110610cab57610cab61337b565b602002602001018190525060405180604001604052807f037554ed7fe30d774efdcbea5c47bd60e97be440f339d8e94a075ca050880bfa81526020017f0d882124a1e5686d823a4fd054dbacabf30031563356103277b10b417e3f7be78152508160800151608281518110610d2257610d2261337b565b602002602001018190525060405180604001604052807f26bb958e73cb4f9121e025365e46e2ae47d1cd3a4c6d1171b23bb82706dc524c81526020017f1269a0b61f5faecb285fa77d3e602994a5c1f474eebb395560caaf0b55164f038152508160800151608381518110610d9957610d9961337b565b602002602001018190525060405180604001604052807f157829dcb141d397fbd25cd14569fb227e450176fe6860a9b3ab4da319757b3e81526020017f04ee2a925f1a4731731d7d25d76063fe5b42ef3c8b598b79fba15760fd3483c88152508160800151608481518110610e1057610e1061337b565b602002602001018190525060405180604001604052807f14f725363199a87257bea94df433eace450e826e4399609904764f437442fe1581526020017f0866f2a9bbca3f7178ae34dbcf457aa15413afa68339d98d682bcf0a2194b9068152508160800151608581518110610e8757610e8761337b565b602002602001018190525060405180604001604052807f1ba6d51ae9843280fec4654cc7884df8b06487bbb73fc4360e1a9d2e8a76cb0281526020017f22f9f99b713804bd4f7987264825815b4b670b66fb422098df4b7dd09f71ec998152508160800151608681518110610efe57610efe61337b565b602002602001018190525060405180604001604052807f2de77cea2e7a84fd7a3288dd347386fff912e44b5d8a09ff3df8720e64bc0f0481526020017f22b100ea8a49aba4537c168788540eddf662c59aaad77ffed62c50b3ecd36c6b8152508160800151608781518110610f7557610f7561337b565b602002602001018190525060405180604001604052807f2a7add171eae584d32441178a30b84a350d3493ac96e65ccb575b470261f807681526020017f124aa379c0e1d2835789cebb00e456fc24cfd34d7e073fa9323b45bf2c39bec68152508160800151608881518110610fec57610fec61337b565b602002602001018190525060405180604001604052807f23ed60f0be7c516d3d3f652168fe10548cc91ae6b0a782a397bea28566930cdc81526020017f11bae34d0827bf39000d0c4b7afc6402fda6050a5c0bbcd70a6c53f7d49b31b281525081608001516089815181106110635761106361337b565b602002602001018190525060405180604001604052807f1d0e74d9a8a1f9dc3c805c6629cd00a4073dd9da71d41238232127d8e0c4f99781526020017f1c39b9f5660151d9a79131b20dcc1408d591791dfd57338db62afe4a0131cd248152508160800151608a815181106110da576110da61337b565b602002602001018190525060405180604001604052807f18af6404e7630d725699c6b97718b8d658b8aaa989d3fbf499ae78bc036e5e0881526020017f0e41b50fb9651b1e86a17949194b9c23675e06198627cdbebd2b7baf47d88dfb8152508160800151608b815181106111515761115161337b565b602002602001018190525060405180604001604052807f11b24a75862bc276dffb1fc9c6b7ed56c0c3745aed1c363ce1c9cf8d9052751181526020017f23375541af0bee17f6da1ea2a32b3937e8193d908821b965b313ae42975802fa8152508160800151608c815181106111c8576111c861337b565b602002602001018190525060405180604001604052807f205a02cd65f56f4820d547145727bf299922372d6c0bf6e76b34ed94c5754bdb81526020017f08f5c0903660ee286567e38748986a1accb124b849ffc0f7cd186fbd1015eef18152508160800151608d8151811061123f5761123f61337b565b602002602001018190525060405180604001604052807f010ae0f82873c4b98f850654f4f642b3b6b76fb2456e111f571efc5788d5b90581526020017f107f6f2fde0c45d306722dedc283d350951703072702cc84f18cb3b0c0845c7f8152508160800151608e815181106112b6576112b661337b565b602002602001018190525060405180604001604052807f2b26463fcbb02875d6875b90da4f241670e68cd4cb6af26e1b51cfc3b4fd0e8a81526020017f2383bead90438d246c026aab197c3f94296b2efb0deefc5c19b3fe6257ac35328152508160800151608f8151811061132d5761132d61337b565b602002602001018190525060405180604001604052807f244d24c7677705a6052acf61954c74695ab4c8cf37dfcd7ac619ff1d31e60c4a81526020017f10f8fb417153b39b5bd95c0557e0c3b680d4536b0ebd45d85822cf1c9b02b1cc81525081608001516090815181106113a4576113a461337b565b602002602001018190525060405180604001604052807f26b205615527106a0e721b9467cd26a38e23169a501ac962e0940dde44736da281526020017f28bb4eb2c2d26371dd2d49bdd69d38bba45c498787cdbef5870810c310a8032e815250816080015160918151811061141b5761141b61337b565b602002602001018190525060405180604001604052807f2a7e437b1737ce5dd4e6558b52736a53250534b0f9c4bd070cd830d35e84bdd181526020017f0a1cf60a342c2f05baf99c6a5abcb17ca947bac72e022ca589cf39e27ea5253381525081608001516092815181106114925761149261337b565b602002602001018190525060405180604001604052807f301216ca55b1d6cbf60873e775c1ed22b9a95017c5b7905c4232a64a191f83ec81526020017f28dc8fb35506f6cdfd03c6234fe583fb442b55639e250c3c42c48d62c10df34881525081608001516093815181106115095761150961337b565b602002602001018190525060405180604001604052807f240420e4f648aeab6f97ccb6e5a6b189788572a7caafc2902398efa12a5262ec81526020017f22f2998089a48d8e2cb7fa2d9783e2c92ed0de56027e0d8d5a28f5f519456c6181525081608001516094815181106115805761158061337b565b602002602001018190525060405180604001604052807f17e3c905d6fc4cbf285eb33e19615475f2b666eed42ec9b5679560159b3206be81526020017f0d64e46aa9e6eb44ebef97d6625322924c55000765ceb4e4ad6ffec052231d4b81525081608001516095815181106115f7576115f761337b565b602002602001018190525060405180604001604052807f1409b60399de6b9aa0caa501d7cfdc0077ba930e5fce78134e4b5cecfbe08b0b81526020017f241f6e66a8ed19b3e507024a9e036af4bbcf36f04f1ca4d3bd18a09cf89636aa815250816080015160968151811061166e5761166e61337b565b602002602001018190525060405180604001604052807f1dd6fd2b36a0a35fc8e254981b264e0cf7b3d21a340f9399a09b9dd478d439d681526020017f2c4b87bdd1f5ea622aa4b585ac648366f3e622bb18de392bd3183c79243622d381525081608001516097815181106116e5576116e561337b565b602002602001018190525060405180604001604052807f297d291b3fee69c93615f9bde6e9cf3e45b50ac038baec36f8a5068cae63e74781526020017f1a147343855b2cedc2538c4983b0ef0e0c2d8606174b4aa7cb51a3dd9d36d6dc815250816080015160988151811061175c5761175c61337b565b602002602001018190525060405180604001604052807f2690519b8a10fd7529e74f23fade732b3510f9e4d64dd0373fc13b2a5d63606581526020017f1a6624b3295b4eb4144db83f4c6862776bd9377f58b7b52f43afe9f712bd109b81525081608001516099815181106117d3576117d361337b565b602002602001018190525060405180604001604052807f189e1d237a8b920265ffac929663d79c78744f7c4196f2951da29f1bb7177dac81526020017f1f143d3e449784f7536d001737a4c36bb0ea548224644f518f27d92eb9dc65d28152508160800151609a8151811061184a5761184a61337b565b602002602001018190525060405180604001604052807f0aecb437cdd685869acb018e221c463a77f3c0b5fca3f68e53c3c8b7b95f2a2181526020017f0c02bb9e07ca4078dbba6a41fb83c4c110b1037ea59916cf28902e547842364f8152508160800151609b815181106118c1576118c161337b565b602002602001018190525060405180604001604052807f302878edc00bafdd5c15141fc6381e2d29ac87a9c11c75aa3ee82fb3dfe2ac2581526020017f2f1e3defa6bf83011ff0600e9937b79d8406659295b10ea878cf311b6ff0731a8152508160800151609c815181106119385761193861337b565b602002602001018190525060405180604001604052807f266cd0f7442f0cc2841600c49dd6cbc53f1351aebddb447c813cd2859e6c540381526020017f2d5f1ff8b5dac815e1356ff355f938180f4246ba1524ee718536da394d03bbf08152508160800151609d815181106119af576119af61337b565b602002602001018190525060405180604001604052807f05b57bcf6a424f7f9b20c8ff46e2176c341aeab91bcc4e27146efba7ee513d4881526020017f25d94e032c1b18ee66d46eeae7702cf8a9554e690afd61400492d5fe556542478152508160800151609e81518110611a2657611a2661337b565b602002602001018190525060405180604001604052807f1d58e2065cf3cae918466c317d7b0067d4e40fbd4e43ee331b3047338a14635681526020017f145b53cd84f13bd6e9817679a8f4caddf27f36a3de315201b3d9748a1e871df58152508160800151609f81518110611a9d57611a9d61337b565b602002602001018190525060405180604001604052807f2ddfc09d75ffd15b43644adf7b0afd0cc6e2c5f6ca3c12f716ab80e9f29025d881526020017f28a8703048406f45a4f4e21c97153d889e8e5f7f24be5f4422ed83d624b8f68a815250816080015160a081518110611b1457611b1461337b565b602002602001018190525060405180604001604052807f2b5238fdbfa59b804c473bb2c3e0a0a1b3210ce15932fd8c5db450fc96614cd481526020017f03330616c6c9327cbce6f4ceb49cf7d6e002a60c43cdb07e3605ad5d5699c570815250816080015160a181518110611b8b57611b8b61337b565b602002602001018190525060405180604001604052807f20af200a2e23d0af21d2f5a990a3596cbc1a6c73a1c6d9ac61fad097265c2dd281526020017f2e01f0071db5d67f41be9bf08fb0ec36baeb688470fe1b2ef988a949967abec2815250816080015160a281518110611c0257611c0261337b565b602002602001018190525060405180604001604052807f1b2bd65b9e8fa8cc465a7918678d34930c06efd40296d2a8f3aae7c19dff3d4a81526020017f0d63e7de8c78b00b812120b5b817057a1fb3b50b93e53e77bb99384e3b9ee562815250816080015160a381518110611c7957611c7961337b565b602002602001018190525060405180604001604052807f0f5dd7eb83dabc76d5f67b277c6411cde97ee1c7aca1bf916413aa1970f1b86e81526020017f2a1f355b0f0361d8303b7d8798df2e4ef77c97fde15e4fd1ffdfe9a42d1e1b48815250816080015160a481518110611cf057611cf061337b565b602002602001018190525060405180604001604052807f214f1ebdf897dc8ed7a96f77bafdf32aa4f7b87267fb9472c1c38a32389d37b581526020017f2584a39378197bb907d2a543fb9500445edf33d870df0c05857cb86c387638c4815250816080015160a581518110611d6757611d6761337b565b602002602001018190525060405180604001604052807f2efecb9c4dd6527870dee1dc34250f668fdade3fa69efb2886c4428d4a17c51381526020017f190f6025112af91a147d7cd0ba601e02bb584f54d1fb63f2f0da62ece1554998815250816080015160a681518110611dde57611dde61337b565b602002602001018190525060405180604001604052807f0da71530c378fda9e3520f6ed4af697bb13f61aa22cbdb89ac61829c78ba55ec81526020017f23e2a119f9089ec271800706156766a3bd424f79fbb18c10567169b331abf1c0815250816080015160a781518110611e5557611e5561337b565b602002602001018190525060405180604001604052807f1b77547603acdea765f417710b240ba4893d098102c2bd2db06870718c68335d81526020017f1c35dd2e084de36567937082410272ba2dc56dac806d128a2664bdfa1eb9858a815250816080015160a881518110611ecc57611ecc61337b565b602002602001018190525060405180604001604052807f1420a495cce26d3a3215bdb78c2f0e35476cb9c1b55d9f6e45b6b17d037b573c81526020017f2afa01a251a62e506e424bb1d6f5853de2ad0c4cd331d5b96554baea1117a790815250816080015160a981518110611f4357611f4361337b565b602002602001018190525060405180604001604052807f0e1c197fca5c103d1022ba496ca9fb92cb91782de86ff2ae341359c9284885c681526020017f2664e2f56082b18b70e92d310e9cb866124aec2358b4ecdaf381b4b1bc2cc2ac815250816080015160aa81518110611fba57611fba61337b565b602002602001018190525060405180604001604052807f1439433f43950a7b844f58549277f16db1580fb5fa5fbd26e29394eff74a122c81526020017f2fd13164e60063c81fab0f4ae357da4a1db85d9b1d47ecc67c9968fd8dbd35be815250816080015160ab815181106120315761203161337b565b602002602001018190525060405180604001604052807f01ad2f3a70b9b912e3ef0fbb547c9294c55a934c5d9180807df22ae5dffea9f881526020017f1918309248260ceb6a68d897e047fe411a2e5b09acfe89c5cf10e08a1ba9910f815250816080015160ac815181106120a8576120a861337b565b602002602001018190525060405180604001604052807f0bbd274dcc524484807dc99d6dc22ec6999ad359113dff31838988f7b4cba75681526020017f1274bc1ad4fb09e2064a3caa89c60008ae5b5fb6ca331179f9af7ea740b5e205815250816080015160ad8151811061211f5761211f61337b565b602002602001018190525060405180604001604052807f27136311c0d3799bd90b8243da55e02fa0e4dfc09f87830ed2d30db46c71dd1181526020017f1f3f192459e127862b004ea4ac117ed5945d31155d58bde4c11b31017dd2eca1815250816080015160ae815181106121965761219661337b565b602002602001018190525060405180604001604052807f01cd60379233af7da4bf33c2e5c19305a08fdbf5770d016e664a4d02155c769281526020017f07f76bdf6b5689a216362ab54dbbbb11288c259373979d14be7222ea861dd781815250816080015160af8151811061220d5761220d61337b565b602002602001018190525060405180604001604052807f071aad7d0dd787ab62566963aa9a97ae9fcebc1287feae5a39cc686a6ce948df81526020017f11035d897bec68fe2aee906e3deb95f51b01c70f6cda87f4f8de95835a416c27815250816080015160b0815181106122845761228461337b565b602002602001018190525060405180604001604052807f1ac8dc338ac449c67b1b193d8a74e62e3e16d59621d98a395bf08ebb13b0417e81526020017f197c2b48d0d7cade68b0949f2167c109fd92009f5aac821b041258ab0b64ead9815250816080015160b1815181106122fb576122fb61337b565b602002602001018190525060405180604001604052807f08689865c4e6c66fbb8053635cc432e5a70be775e8ed1e882aaa1b591c88d57b81526020017f189c0d16903c6a2ffb94f2a4ce2964f4a2dafea8da53ac4b92277eb03329a7b8815250816080015160b2815181106123725761237261337b565b602002602001018190525060405180604001604052807f18433e3b986bdb206007608f85d40c91e9e2ae79b76fa49ebf17fb42660e5f4481526020017f0e08bccacb0feda45a7f5e30df790b5d1796f877e147d5a8518f506988cfdee5815250816080015160b3815181106123e9576123e961337b565b602002602001018190525060405180604001604052807f146c756db2df3e7a4b022595d388cec540b5c1e1fba347c7f320ff6785f40dd281526020017f056a09bc55f5b4f9e86bfebe5dfd3231efb4e3252166a732b0b298eb2f3f3126815250816080015160b4815181106124605761246061337b565b602002602001018190525060405180604001604052807f0480062f9fd1bc21f246cadc0d2f0521a2fb2f9e5140065f9217ba226e52459481526020017f28d6bb5f05dac36c3020c963337f640d93de57c086cec7ae6ec7842833027890815250816080015160b5815181106124d7576124d761337b565b602002602001018190525060405180604001604052807f293aa5650f271e537c66b858fcec66b6eb3c29ebaabf6924dd419202322e532281526020017f1ef7551bc129f708a81e7f8ee180c3ec18b55948997f9d750f704c7db2917e6b815250816080015160b68151811061254e5761254e61337b565b602002602001018190525060405180604001604052807f2a1e04251d93b568adedfe70b176721035c88faa548140f1de97bd2b77b523d881526020017f10e4c8a3be2748b04a20685e26219d7a104f1e3884514814b0eb6fbd68a4cb30815250816080015160b7815181106125c5576125c561337b565b602002602001018190525060405180604001604052807f0fd0e2b88e618599117f3bd91357dc94459a0d03a6d037441bab643c02b69f7d81526020017f1ef157e07d4e9a97607784cb2e1b6b5bf035a8c5ec979b5f1bb687392693e00a815250816080015160b88151811061263c5761263c61337b565b602002602001018190525060405180604001604052807f275ed35ebaff32bb696ae2f55ff5666b71060fc2895b0d18e738ed2f046ca58981526020017f1b13d5b0d8736e39c1902ed39ef07578dfefb0407c48ffa075aca87967cdea9d815250816080015160b9815181106126b3576126b361337b565b602002602001018190525060405180604001604052807f15779bc21bd04ac61250d0742c9a1d7a4967d5237be8725baabf27e700270ed181526020017f252ba580b328a893d7763d31250df1cd05f85c9a4e056873fef0f18a636b35e7815250816080015160ba8151811061272a5761272a61337b565b602002602001018190525060405180604001604052807f119fcea003f09b91c7ed34d45f445780310db70dc7d718e54092e53828e45b1c81526020017f0e0dbae0f422471ddabed689168ee9766f82c6795a23ee982d951f70ac6948cc815250816080015160bb815181106127a1576127a161337b565b602002602001018190525060405180604001604052807f057e1d1b841fe2053e08c790e3d6a596c3678358524b6c4747319c892362494681526020017f0e9d7f24166e21cbf612c4fde6da0025514c17aa9c7d0ab76961d4ec0fcf18e4815250816080015160bc815181106128185761281861337b565b602002602001018190525060405180604001604052807f1ea579cbf25b2a4d8b980b199c0e3304079ab8910fd49003e7aa881d7974d62381526020017f05804bda5b5a03ee6a97af0d40c2d417e1879f219dbbbf31e72fd9249e7254e2815250816080015160bd8151811061288f5761288f61337b565b602002602001018190525060405180604001604052807f132931644e552aa4f4db57da4ab1217c2948730bd40cc00d538f9cd92ec1564081526020017f0b7840eba992e4a6ef509e41658e2e751d6567805aedf077f15b06d5b3321fb8815250816080015160be815181106129065761290661337b565b602002602001018190525060405180604001604052807f157f95ba8aaa8232337f43be28aa2b2f0f3de9fbb2a615bc316d10e50b33511881526020017f0431bf89e5204aefbf145874e96559109cfef41cc6af352f7ddcbf05790e1f49815250816080015160bf8151811061297d5761297d61337b565b602002602001018190525060405180604001604052807f242fc293c1d6172372ce5b924d776a0e13885c9979fe8ae43ff5fd57e667269f81526020017f021ff65861276067157864d1dc4f0eafd2b972f958c41da508938aad53f0c8ba815250816080015160c0815181106129f4576129f461337b565b602002602001018190525060405180604001604052807f2d80f500097a2e32bcaf9927943add4e29acce4f4fcbd8f173e98fe4b500421581526020017f05bfcdcdb8cf0fe31c0b6eef9dc79689882f13078190609afc23ca2f3ebe8300815250816080015160c181518110612a6b57612a6b61337b565b602002602001018190525060405180604001604052807f09518bab2dcb1098fc8a775a2825406c90eef30139bd1624e1239e9ab77eb85881526020017f19523ad36962c831dc8052d2993451a5b363e8b272cf05fe48848c5395b8ef58815250816080015160c281518110612ae257612ae261337b565b602002602001018190525060405180604001604052807f14bb648f694091c02880d94194a29b45ecfe1de16f9f37d69c33276607d7951581526020017f05a61e15af34c3c12c79dd020ea5f8e8ec15c7b9ec10d2080bff9ee2a6cbfd94815250816080015160c381518110612b5957612b5961337b565b602002602001018190525060405180604001604052807f061fe566f08792e8e0ef0e657169b5e82af5d1586fdef344c636b9eed7f48b7481526020017f0d0671fec0c473dd305e27b289e358ca5afb10ed85e6705b5eab2fb49a43cba4815250816080015160c481518110612bd057612bd061337b565b602002602001018190525060405180604001604052807f2183393cc47a9233287141106fc164a3b423ab3093aca02e2aa68cec1ff3009a81526020017f2a78384106f11112e054e464eb05b84e55d5e58305ece1872d346e6e59efdf62815250816080015160c581518110612c4757612c4761337b565b602002602001018190525060405180604001604052807f1fdcf3160e6b22af1d8fa3d9432de36b822f960c3955228157034b23797a8b5581526020017f26e941478cb3bb5f534e2c84282dd24fa543123438be8a3d1a81374143876115815250816080015160c681518110612cbe57612cbe61337b565b602002602001018190525060405180604001604052807f06ba094357058725f3ec362b615cdf0c4a8215e2852cdfb7236a6d73f97f180d81526020017f17a78826da5791b54568900c970be1d6d1fb2d49c6b8b0216ee82e46fadef52a815250816080015160c781518110612d3557612d3561337b565b602002602001018190525060405180604001604052807f223d3a9c8f902b09e1a1c53066fe9a121d2cbe4e1d3be70b97b8481d5d2ab1fd81526020017f285cd7700f2d5c40a2b0a90a3495d769dc0534b72481db9c290a33311cb9ff09815250816080015160c881518110612dac57612dac61337b565b602002602001018190525060405180604001604052807f28704d870ce68b04b0a2bba463cdfb91869a48433fabdb567d0ab7209d1cd05481526020017f03e22035fbbd6f4bc6541ce7d19ba71b761bbff5d42c4b1859d5cf55aa3eccfc815250816080015160c981518110612e2357612e2361337b565b602002602001018190525060405180604001604052807f306282d84fd7331624c9a6a17085d415fb5ff18759c97ba8ad7632af93fdf19681526020017f041f6e4eb597874635e1dedca8c6fff1114cad726143242719f84b19b8824a91815250816080015160ca81518110612e9a57612e9a61337b565b602002602001018190525060405180604001604052807f2bf8aa9e4262629edf970d8fcd225f8702754169d169de83491c34325f5b718281526020017f0b3a5ffc5873fcd5b324292f4e49a6fe922fd2ad5d925d379fdae02d2dc2626b815250816080015160cb81518110612f1157612f1161337b565b602002602001018190525060405180604001604052807f036b770187d15fff03e11594829ceeb9b55cef7d9d8fc1c289edf7d674bcde1781526020017f29e51ce93f2fbae10d12847f39d732357167c5504c711350dfa8a6fef1a1858c815250816080015160cc81518110612f8857612f8861337b565b602002602001018190525060405180604001604052807f053569e74a226f994e9c4676c0c1b86b3a569cf4c9851b7e8f0b17f61fe5e24181526020017f284ce990ccde438a3d0436dd575901ff200c73abfa7608bdb45f7d8a094815b8815250816080015160cd81518110612fff57612fff61337b565b602002602001018190525060405180604001604052807f1b3b9296c75136025d91f4d5e24607d1cf7df6f10656095497baf4d2b527171e81526020017f05f2778811cd71d5537ec75df07777b8c09049d84814d1e6a45c0aebbc203252815250816080015160ce815181106130765761307661337b565b602002602001018190525060405180604001604052807f12c10281f8fe4bf23899b5bd0c6cf06d5c5ef6d67b07cc6b06c69091f0d65f0681526020017f2991f5e26d3a931aaa75dd594293028a770e2550c23428fa5b9e7530efb57ed7815250816080015160cf815181106130ed576130ed61337b565b602002602001018190525060405180604001604052807f294e98ed845226a2c68db60dec4afcdad583e53f920cfcbef0f5076727aacf5181526020017f0fb535c9b75540f5db38a604c359e730f3f858d8f91cb2f19780791dad0cb936815250816080015160d0815181106131645761316461337b565b602002602001018190525060405180604001604052807f183fb6cadcd4c201e4416c742d32b34ace9c2315f86de55f122ca126a8782e6581526020017f18ab4c6b4d1a74cb38bb79ed4579a8455970d5e53bb77bc3198d11a06929af2f815250816080015160d1815181106131db576131db61337b565b602002602001018190525090565b6040805160e08101909152600060a0820181815260c083019190915281526020810161321361323a565b815260200161322061323a565b815260200161322d61323a565b8152602001606081525090565b604051806040016040528061324d61325f565b815260200161325a61325f565b905290565b60405180604001604052806002906020820280368337509192915050565b8060005b60028110156132a0578151845260209384019390910190600101613281565b50505050565b6132b182825161327d565b60208101516132c3604084018261327d565b505050565b6020808252825180518383015281015160408301526000906102008301818501516132f660608601826132a6565b5060408086015161330a60e08701826132a6565b50606086015161331e6101608701826132a6565b5060808601516101e0868101528051928390528301916000906102208701905b8083101561336f5761335b82865180518252602090810151910152565b93850193600192909201919083019061333e565b50979650505050505050565b634e487b7160e01b600052603260045260246000fdfea164736f6c6343000811000a",
  "devdoc": {
    "kind": "dev",
    "methods": {},
    "version": 1
  },
  "userdoc": {
    "kind": "user",
    "methods": {},
    "version": 1
  },
  "storageLayout": {
    "storage": [],
    "types": null
  }
}